{
  "address": "0x3a909F4d06f98b8bb051F4f740f8A54Ae98660Ed",
  "abi": [
    {
      "anonymous": false,
      "inputs": [
        {
          "indexed": true,
          "internalType": "address",
          "name": "owner",
          "type": "address"
        },
        {
          "indexed": true,
          "internalType": "address",
          "name": "spender",
          "type": "address"
        },
        {
          "indexed": false,
          "internalType": "uint256",
          "name": "value",
          "type": "uint256"
        }
      ],
      "name": "Approval",
      "type": "event"
    },
    {
      "anonymous": false,
      "inputs": [
        {
          "indexed": false,
          "internalType": "uint8",
          "name": "version",
          "type": "uint8"
        }
      ],
      "name": "Initialized",
      "type": "event"
    },
    {
      "anonymous": false,
      "inputs": [],
      "name": "LOG_PUBLIC_SWAP_ENABLED",
      "type": "event"
    },
    {
      "anonymous": false,
      "inputs": [
        {
          "indexed": true,
          "internalType": "address",
          "name": "previousOwner",
          "type": "address"
        },
        {
          "indexed": true,
          "internalType": "address",
          "name": "newOwner",
          "type": "address"
        }
      ],
      "name": "OwnershipTransferred",
      "type": "event"
    },
    {
      "anonymous": false,
      "inputs": [
        {
          "indexed": true,
          "internalType": "address",
          "name": "from",
          "type": "address"
        },
        {
          "indexed": true,
          "internalType": "address",
          "name": "to",
          "type": "address"
        },
        {
          "indexed": false,
          "internalType": "uint256",
          "name": "value",
          "type": "uint256"
        }
      ],
      "name": "Transfer",
      "type": "event"
    },
    {
      "inputs": [],
      "name": "ASSET_MANAGER_ROLE",
      "outputs": [
        {
          "internalType": "bytes32",
          "name": "",
          "type": "bytes32"
        }
      ],
      "stateMutability": "view",
      "type": "function"
    },
    {
      "inputs": [],
      "name": "DEFAULT_ADMIN_ROLE",
      "outputs": [
        {
          "internalType": "bytes32",
          "name": "",
          "type": "bytes32"
        }
      ],
      "stateMutability": "view",
      "type": "function"
    },
    {
      "inputs": [],
      "name": "INDEX_MANAGER_ROLE",
      "outputs": [
        {
          "internalType": "bytes32",
          "name": "",
          "type": "bytes32"
        }
      ],
      "stateMutability": "view",
      "type": "function"
    },
    {
      "inputs": [],
      "name": "TOTAL_WEIGHT",
      "outputs": [
        {
          "internalType": "uint256",
          "name": "",
          "type": "uint256"
        }
      ],
      "stateMutability": "view",
      "type": "function"
    },
    {
      "inputs": [],
      "name": "accessController",
      "outputs": [
        {
          "internalType": "contract AccessController",
          "name": "",
          "type": "address"
        }
      ],
      "stateMutability": "view",
      "type": "function"
    },
    {
      "inputs": [
        {
          "internalType": "address",
          "name": "owner",
          "type": "address"
        },
        {
          "internalType": "address",
          "name": "spender",
          "type": "address"
        }
      ],
      "name": "allowance",
      "outputs": [
        {
          "internalType": "uint256",
          "name": "",
          "type": "uint256"
        }
      ],
      "stateMutability": "view",
      "type": "function"
    },
    {
      "inputs": [
        {
          "internalType": "address",
          "name": "spender",
          "type": "address"
        },
        {
          "internalType": "uint256",
          "name": "amount",
          "type": "uint256"
        }
      ],
      "name": "approve",
      "outputs": [
        {
          "internalType": "bool",
          "name": "",
          "type": "bool"
        }
      ],
      "stateMutability": "nonpayable",
      "type": "function"
    },
    {
      "inputs": [
        {
          "internalType": "address",
          "name": "account",
          "type": "address"
        }
      ],
      "name": "balanceOf",
      "outputs": [
        {
          "internalType": "uint256",
          "name": "",
          "type": "uint256"
        }
      ],
      "stateMutability": "view",
      "type": "function"
    },
    {
      "inputs": [
        {
          "internalType": "uint256",
          "name": "amount",
          "type": "uint256"
        }
      ],
      "name": "burn",
      "outputs": [],
      "stateMutability": "nonpayable",
      "type": "function"
    },
    {
      "inputs": [
        {
          "internalType": "address",
          "name": "account",
          "type": "address"
        },
        {
          "internalType": "uint256",
          "name": "amount",
          "type": "uint256"
        }
      ],
      "name": "burnFrom",
      "outputs": [],
      "stateMutability": "nonpayable",
      "type": "function"
    },
    {
      "inputs": [],
      "name": "decimals",
      "outputs": [
        {
          "internalType": "uint8",
          "name": "",
          "type": "uint8"
        }
      ],
      "stateMutability": "view",
      "type": "function"
    },
    {
      "inputs": [
        {
          "internalType": "address",
          "name": "spender",
          "type": "address"
        },
        {
          "internalType": "uint256",
          "name": "subtractedValue",
          "type": "uint256"
        }
      ],
      "name": "decreaseAllowance",
      "outputs": [
        {
          "internalType": "bool",
          "name": "",
          "type": "bool"
        }
      ],
      "stateMutability": "nonpayable",
      "type": "function"
    },
    {
      "inputs": [
        {
          "internalType": "address",
          "name": "t",
          "type": "address"
        }
      ],
      "name": "deleteRecord",
      "outputs": [],
      "stateMutability": "nonpayable",
      "type": "function"
    },
    {
      "inputs": [
        {
          "internalType": "address",
          "name": "_token",
          "type": "address"
        }
      ],
      "name": "getRecord",
      "outputs": [
        {
          "components": [
            {
              "internalType": "uint40",
              "name": "lastDenormUpdate",
              "type": "uint40"
            },
            {
              "internalType": "uint96",
              "name": "denorm",
              "type": "uint96"
            },
            {
              "internalType": "uint8",
              "name": "index",
              "type": "uint8"
            }
          ],
          "internalType": "struct IndexSwap.Record",
          "name": "",
          "type": "tuple"
        }
      ],
      "stateMutability": "view",
      "type": "function"
    },
    {
      "inputs": [],
      "name": "getTokens",
      "outputs": [
        {
          "internalType": "address[]",
          "name": "",
          "type": "address[]"
        }
      ],
      "stateMutability": "view",
      "type": "function"
    },
    {
      "inputs": [
        {
          "internalType": "address",
          "name": "spender",
          "type": "address"
        },
        {
          "internalType": "uint256",
          "name": "addedValue",
          "type": "uint256"
        }
      ],
      "name": "increaseAllowance",
      "outputs": [
        {
          "internalType": "bool",
          "name": "",
          "type": "bool"
        }
      ],
      "stateMutability": "nonpayable",
      "type": "function"
    },
    {
      "inputs": [],
      "name": "indexManager",
      "outputs": [
        {
          "internalType": "contract IndexManager",
          "name": "",
          "type": "address"
        }
      ],
      "stateMutability": "view",
      "type": "function"
    },
    {
      "inputs": [],
      "name": "indexPrice",
      "outputs": [
        {
          "internalType": "uint256",
          "name": "",
          "type": "uint256"
        }
      ],
      "stateMutability": "view",
      "type": "function"
    },
    {
      "inputs": [],
      "name": "indexSwapLibrary",
      "outputs": [
        {
          "internalType": "contract IndexSwapLibrary",
          "name": "",
          "type": "address"
        }
      ],
      "stateMutability": "view",
      "type": "function"
    },
    {
      "inputs": [
        {
          "internalType": "address[]",
          "name": "tokens",
          "type": "address[]"
        },
        {
          "internalType": "uint96[]",
          "name": "denorms",
          "type": "uint96[]"
        }
      ],
      "name": "init",
      "outputs": [],
      "stateMutability": "nonpayable",
      "type": "function"
    },
    {
      "inputs": [
        {
          "internalType": "string",
          "name": "_name",
          "type": "string"
        },
        {
          "internalType": "string",
          "name": "_symbol",
          "type": "string"
        },
        {
          "internalType": "address",
          "name": "_outAsset",
          "type": "address"
        },
        {
          "internalType": "address",
          "name": "_vault",
          "type": "address"
        },
        {
          "internalType": "uint256",
          "name": "_maxInvestmentAmount",
          "type": "uint256"
        },
        {
          "internalType": "contract IndexSwapLibrary",
          "name": "_indexSwapLibrary",
          "type": "address"
        },
        {
          "internalType": "contract IndexManager",
          "name": "_indexManager",
          "type": "address"
        },
        {
          "internalType": "contract AccessController",
          "name": "_accessController",
          "type": "address"
        }
      ],
      "name": "initialize",
      "outputs": [],
      "stateMutability": "nonpayable",
      "type": "function"
    },
    {
      "inputs": [],
      "name": "investInFund",
      "outputs": [],
      "stateMutability": "payable",
      "type": "function"
    },
    {
      "inputs": [],
      "name": "name",
      "outputs": [
        {
          "internalType": "string",
          "name": "",
          "type": "string"
        }
      ],
      "stateMutability": "view",
      "type": "function"
    },
    {
      "inputs": [],
      "name": "outAsset",
      "outputs": [
        {
          "internalType": "address",
          "name": "",
          "type": "address"
        }
      ],
      "stateMutability": "view",
      "type": "function"
    },
    {
      "inputs": [],
      "name": "owner",
      "outputs": [
        {
          "internalType": "address",
          "name": "",
          "type": "address"
        }
      ],
      "stateMutability": "view",
      "type": "function"
    },
    {
      "inputs": [],
      "name": "renounceOwnership",
      "outputs": [],
      "stateMutability": "nonpayable",
      "type": "function"
    },
    {
      "inputs": [],
      "name": "symbol",
      "outputs": [
        {
          "internalType": "string",
          "name": "",
          "type": "string"
        }
      ],
      "stateMutability": "view",
      "type": "function"
    },
    {
      "inputs": [],
      "name": "totalSupply",
      "outputs": [
        {
          "internalType": "uint256",
          "name": "",
          "type": "uint256"
        }
      ],
      "stateMutability": "view",
      "type": "function"
    },
    {
      "inputs": [
        {
          "internalType": "address",
          "name": "to",
          "type": "address"
        },
        {
          "internalType": "uint256",
          "name": "amount",
          "type": "uint256"
        }
      ],
      "name": "transfer",
      "outputs": [
        {
          "internalType": "bool",
          "name": "",
          "type": "bool"
        }
      ],
      "stateMutability": "nonpayable",
      "type": "function"
    },
    {
      "inputs": [
        {
          "internalType": "address",
          "name": "from",
          "type": "address"
        },
        {
          "internalType": "address",
          "name": "to",
          "type": "address"
        },
        {
          "internalType": "uint256",
          "name": "amount",
          "type": "uint256"
        }
      ],
      "name": "transferFrom",
      "outputs": [
        {
          "internalType": "bool",
          "name": "",
          "type": "bool"
        }
      ],
      "stateMutability": "nonpayable",
      "type": "function"
    },
    {
      "inputs": [
        {
          "internalType": "address",
          "name": "newOwner",
          "type": "address"
        }
      ],
      "name": "transferOwnership",
      "outputs": [],
      "stateMutability": "nonpayable",
      "type": "function"
    },
    {
      "inputs": [
        {
          "internalType": "address[]",
          "name": "tokens",
          "type": "address[]"
        },
        {
          "internalType": "uint96[]",
          "name": "denorms",
          "type": "uint96[]"
        }
      ],
      "name": "updateRecords",
      "outputs": [],
      "stateMutability": "nonpayable",
      "type": "function"
    },
    {
      "inputs": [
        {
          "internalType": "address[]",
          "name": "tokens",
          "type": "address[]"
        }
      ],
      "name": "updateTokenList",
      "outputs": [],
      "stateMutability": "nonpayable",
      "type": "function"
    },
    {
      "inputs": [],
      "name": "vault",
      "outputs": [
        {
          "internalType": "address",
          "name": "",
          "type": "address"
        }
      ],
      "stateMutability": "view",
      "type": "function"
    },
    {
      "inputs": [
        {
          "internalType": "uint256",
          "name": "tokenAmount",
          "type": "uint256"
        }
      ],
      "name": "withdrawFund",
      "outputs": [],
      "stateMutability": "nonpayable",
      "type": "function"
    },
    {
      "stateMutability": "payable",
      "type": "receive"
    }
  ],
  "transactionHash": "0x427150c0f596582534626b246809a0ca1fde6b5d554ab590bd98c7506b5d92cf",
  "args": [],
  "numDeployments": 1,
  "solcInputHash": "77d8a7f926aaf644c8ba61d719f8b8d7",
  "bytecode": "0x608060405234801561001057600080fd5b506156c680620000216000396000f3fe6080604052600436106102085760003560e01c80637101a33e11610118578063a758a1d9116100a0578063bc43cbaf1161006f578063bc43cbaf14610757578063dd62ed3e14610782578063ed2a2f9d146107bf578063f2fde38b146107ea578063fbfa77cf146108135761020f565b8063a758a1d91461069b578063a9059cbb146106c4578063aa6ca80814610701578063baad96a51461072c5761020f565b80638da5cb5b116100e75780638da5cb5b146105b257806395d89b41146105dd578063a217fddf14610608578063a457c2d714610633578063a4b32de8146106705761020f565b80637101a33e1461051c578063712aad4f14610547578063715018a61461057257806379cc6790146105895761020f565b8063313ce5671161019b5780635d2fbc1b1161016a5780635d2fbc1b14610425578063617fba041461044e57806365f616b91461048b57806368bafc0e146104b657806370a08231146104df5761020f565b8063313ce5671461036b57806339509351146103965780633d91c7e9146103d357806342966c68146103fc5761020f565b806310bace8c116101d757806310bace8c146102ce57806318160ddd146102f957806321f7e3ea1461032457806323b872dd1461032e5761020f565b806306fdde0314610214578063095ea7b31461023f5780630cee17251461027c5780630d1f3471146102a55761020f565b3661020f57005b600080fd5b34801561022057600080fd5b5061022961083e565b6040516102369190614665565b60405180910390f35b34801561024b57600080fd5b5061026660048036038101906102619190613ace565b6108d0565b60405161027391906144d3565b60405180910390f35b34801561028857600080fd5b506102a3600480360381019061029e9190613e10565b6108f3565b005b3480156102b157600080fd5b506102cc60048036038101906102c791906139e1565b610dc4565b005b3480156102da57600080fd5b506102e3610f3f565b6040516102f091906149a2565b60405180910390f35b34801561030557600080fd5b5061030e610f45565b60405161031b91906149a2565b60405180910390f35b61032c610f4f565b005b34801561033a57600080fd5b5061035560048036038101906103509190613a7b565b611384565b60405161036291906144d3565b60405180910390f35b34801561037757600080fd5b506103806113b3565b60405161038d91906149bd565b60405180910390f35b3480156103a257600080fd5b506103bd60048036038101906103b89190613ace565b6113bc565b6040516103ca91906144d3565b60405180910390f35b3480156103df57600080fd5b506103fa60048036038101906103f59190613b8f565b6113f3565b005b34801561040857600080fd5b50610423600480360381019061041e9190613e10565b6114f8565b005b34801561043157600080fd5b5061044c60048036038101906104479190613bd8565b61150c565b005b34801561045a57600080fd5b50610475600480360381019061047091906139e1565b6117c8565b6040516104829190614987565b60405180910390f35b34801561049757600080fd5b506104a06118a5565b6040516104ad9190614591565b60405180910390f35b3480156104c257600080fd5b506104dd60048036038101906104d89190613b0e565b6118cc565b005b3480156104eb57600080fd5b50610506600480360381019061050191906139e1565b611bd4565b60405161051391906149a2565b60405180910390f35b34801561052857600080fd5b50610531611c1d565b60405161053e919061445f565b60405180910390f35b34801561055357600080fd5b5061055c611c44565b6040516105699190614576565b60405180910390f35b34801561057e57600080fd5b50610587611c6b565b005b34801561059557600080fd5b506105b060048036038101906105ab9190613ace565b611c7f565b005b3480156105be57600080fd5b506105c7611c9f565b6040516105d4919061445f565b60405180910390f35b3480156105e957600080fd5b506105f2611cc9565b6040516105ff9190614665565b60405180910390f35b34801561061457600080fd5b5061061d611d5b565b60405161062a91906144ee565b60405180910390f35b34801561063f57600080fd5b5061065a60048036038101906106559190613ace565b611d7f565b60405161066791906144d3565b60405180910390f35b34801561067c57600080fd5b50610685611df6565b60405161069291906144ee565b60405180910390f35b3480156106a757600080fd5b506106c260048036038101906106bd9190613d22565b611e1a565b005b3480156106d057600080fd5b506106eb60048036038101906106e69190613ace565b6120fe565b6040516106f891906144d3565b60405180910390f35b34801561070d57600080fd5b50610716612121565b60405161072391906144b1565b60405180910390f35b34801561073857600080fd5b506107416121af565b60405161074e91906144ee565b60405180910390f35b34801561076357600080fd5b5061076c6121d3565b604051610779919061455b565b60405180910390f35b34801561078e57600080fd5b506107a960048036038101906107a49190613a3b565b6121fa565b6040516107b691906149a2565b60405180910390f35b3480156107cb57600080fd5b506107d4612281565b6040516107e191906149a2565b60405180910390f35b3480156107f657600080fd5b50610811600480360381019061080c91906139e1565b612287565b005b34801561081f57600080fd5b5061082861230b565b604051610835919061445f565b60405180910390f35b60606036805461084d90614e14565b80601f016020809104026020016040519081016040528092919081815260200182805461087990614e14565b80156108c65780601f1061089b576101008083540402835291602001916108c6565b820191906000526020600020905b8154815290600101906020018083116108a957829003601f168201915b5050505050905090565b6000806108db612331565b90506108e8818585612339565b600191505092915050565b600260c9541415610939576040517f08c379a0000000000000000000000000000000000000000000000000000000008152600401610930906148e7565b60405180910390fd5b600260c98190555061094a33611bd4565b81111561098c576040517f08c379a000000000000000000000000000000000000000000000000000000000815260040161098390614807565b60405180910390fd5b6000610996610f45565b90506109a23383612504565b60005b60fd80549050811015610db757600060fd82815481106109c8576109c7614f4d565b5b9060005260206000200160009054906101000a900473ffffffffffffffffffffffffffffffffffffffff16905060008173ffffffffffffffffffffffffffffffffffffffff166370a0823160fc60009054906101000a900473ffffffffffffffffffffffffffffffffffffffff166040518263ffffffff1660e01b8152600401610a52919061445f565b60206040518083038186803b158015610a6a57600080fd5b505afa158015610a7e573d6000803e3d6000fd5b505050506040513d601f19601f82011682018060405250810190610aa29190613e3d565b90506000610acb85610abd88856126dd90919063ffffffff16565b6126f390919063ffffffff16565b905061010260009054906101000a900473ffffffffffffffffffffffffffffffffffffffff1673ffffffffffffffffffffffffffffffffffffffff166314f6c3be6040518163ffffffff1660e01b815260040160206040518083038186803b158015610b3657600080fd5b505afa158015610b4a573d6000803e3d6000fd5b505050506040513d601f19601f82011682018060405250810190610b6e9190613a0e565b73ffffffffffffffffffffffffffffffffffffffff168373ffffffffffffffffffffffffffffffffffffffff161415610c385761010260009054906101000a900473ffffffffffffffffffffffffffffffffffffffff1673ffffffffffffffffffffffffffffffffffffffff1663cda7d1178483336040518463ffffffff1660e01b8152600401610c019392919061447a565b600060405180830381600087803b158015610c1b57600080fd5b505af1158015610c2f573d6000803e3d6000fd5b50505050610da1565b61010260009054906101000a900473ffffffffffffffffffffffffffffffffffffffff1673ffffffffffffffffffffffffffffffffffffffff1663cda7d117848361010260009054906101000a900473ffffffffffffffffffffffffffffffffffffffff166040518463ffffffff1660e01b8152600401610cbb9392919061447a565b600060405180830381600087803b158015610cd557600080fd5b505af1158015610ce9573d6000803e3d6000fd5b5050505061010260009054906101000a900473ffffffffffffffffffffffffffffffffffffffff1673ffffffffffffffffffffffffffffffffffffffff16636723a7ea8483336040518463ffffffff1660e01b8152600401610d4d9392919061447a565b602060405180830381600087803b158015610d6757600080fd5b505af1158015610d7b573d6000803e3d6000fd5b505050506040513d601f19601f82011682018060405250810190610d9f9190613e3d565b505b5050508080610daf90614e77565b9150506109a5565b5050600160c98190555050565b61010360009054906101000a900473ffffffffffffffffffffffffffffffffffffffff1673ffffffffffffffffffffffffffffffffffffffff166336fa92d0336040518263ffffffff1660e01b8152600401610e20919061445f565b60206040518083038186803b158015610e3857600080fd5b505afa158015610e4c573d6000803e3d6000fd5b505050506040513d601f19601f82011682018060405250810190610e709190613cf5565b610eaf576040517f08c379a0000000000000000000000000000000000000000000000000000000008152600401610ea6906147e7565b60405180910390fd5b60fe60008273ffffffffffffffffffffffffffffffffffffffff1673ffffffffffffffffffffffffffffffffffffffff168152602001908152602001600020600080820160006101000a81549064ffffffffff02191690556000820160056101000a8154906bffffffffffffffffffffffff02191690556000820160116101000a81549060ff0219169055505050565b60fb5481565b6000603554905090565b600260c9541415610f95576040517f08c379a0000000000000000000000000000000000000000000000000000000008152600401610f8c906148e7565b60405180910390fd5b600260c9819055506000349050600060fd805490501415610feb576040517f08c379a0000000000000000000000000000000000000000000000000000000008152600401610fe2906148c7565b60405180910390fd5b60ff54811115611030576040517f08c379a0000000000000000000000000000000000000000000000000000000008152600401611027906147a7565b60405180910390fd5b600080600060fd80549050905060008167ffffffffffffffff81111561105957611058614f7c565b5b6040519080825280602002602001820160405280156110875781602001602082028036833780820191505090505b50905060008267ffffffffffffffff8111156110a6576110a5614f7c565b5b6040519080825280602002602001820160405280156110d45781602001602082028036833780820191505090505b50905061010160009054906101000a900473ffffffffffffffffffffffffffffffffffffffff1673ffffffffffffffffffffffffffffffffffffffff166344147279306040518263ffffffff1660e01b815260040161113391906145ac565b60006040518083038186803b15801561114b57600080fd5b505afa15801561115f573d6000803e3d6000fd5b505050506040513d6000823e3d601f19601f820116820180604052508101906111889190613c99565b809550819250505061010160009054906101000a900473ffffffffffffffffffffffffffffffffffffffff1673ffffffffffffffffffffffffffffffffffffffff166381a79d0d308884886040518563ffffffff1660e01b81526004016111f294939291906145fe565b60006040518083038186803b15801561120a57600080fd5b505afa15801561121e573d6000803e3d6000fd5b505050506040513d6000823e3d601f19601f820116820180604052508101906112479190613c50565b91506112538683612709565b945085851115611298576040517f08c379a000000000000000000000000000000000000000000000000000000000815260040161128f90614967565b60405180910390fd5b60006112a2610f45565b11156112b9576112b28585612aa0565b95506112bd565b8495505b6112c73387612adb565b60003373ffffffffffffffffffffffffffffffffffffffff16476040516112ed9061444a565b60006040518083038185875af1925050503d806000811461132a576040519150601f19603f3d011682016040523d82523d6000602084013e61132f565b606091505b5050905080611373576040517f08c379a000000000000000000000000000000000000000000000000000000000815260040161136a90614927565b60405180910390fd5b50505050505050600160c981905550565b60008061138f612331565b905061139c858285612c3c565b6113a7858585612cc8565b60019150509392505050565b60006012905090565b6000806113c7612331565b90506113e88185856113d985896121fa565b6113e39190614b4b565b612339565b600191505092915050565b61010360009054906101000a900473ffffffffffffffffffffffffffffffffffffffff1673ffffffffffffffffffffffffffffffffffffffff166336fa92d0336040518263ffffffff1660e01b815260040161144f919061445f565b60206040518083038186803b15801561146757600080fd5b505afa15801561147b573d6000803e3d6000fd5b505050506040513d601f19601f8201168201806040525081019061149f9190613cf5565b6114de576040517f08c379a00000000000000000000000000000000000000000000000000000000081526004016114d5906147e7565b60405180910390fd5b8060fd90805190602001906114f49291906134c8565b5050565b611509611503612331565b82612504565b50565b61010360009054906101000a900473ffffffffffffffffffffffffffffffffffffffff1673ffffffffffffffffffffffffffffffffffffffff166336fa92d0336040518263ffffffff1660e01b8152600401611568919061445f565b60206040518083038186803b15801561158057600080fd5b505afa158015611594573d6000803e3d6000fd5b505050506040513d601f19601f820116820180604052508101906115b89190613cf5565b6115f7576040517f08c379a00000000000000000000000000000000000000000000000000000000081526004016115ee906147e7565b60405180910390fd5b6000805b835181101561177e5760405180606001604052804264ffffffffff16815260200184838151811061162f5761162e614f4d565b5b60200260200101516bffffffffffffffffffffffff1681526020018260ff1681525060fe600086848151811061166857611667614f4d565b5b602002602001015173ffffffffffffffffffffffffffffffffffffffff1673ffffffffffffffffffffffffffffffffffffffff16815260200190815260200160002060008201518160000160006101000a81548164ffffffffff021916908364ffffffffff16021790555060208201518160000160056101000a8154816bffffffffffffffffffffffff02191690836bffffffffffffffffffffffff16021790555060408201518160000160116101000a81548160ff021916908360ff16021790555090505061176983828151811061174457611743614f4d565b5b60200260200101516bffffffffffffffffffffffff1683612f4c90919063ffffffff16565b9150808061177690614e77565b9150506115fb565b5061271081146117c3576040517f08c379a00000000000000000000000000000000000000000000000000000000081526004016117ba90614787565b60405180910390fd5b505050565b6117d0613552565b60fe60008373ffffffffffffffffffffffffffffffffffffffff1673ffffffffffffffffffffffffffffffffffffffff1681526020019081526020016000206040518060600160405290816000820160009054906101000a900464ffffffffff1664ffffffffff1664ffffffffff1681526020016000820160059054906101000a90046bffffffffffffffffffffffff166bffffffffffffffffffffffff166bffffffffffffffffffffffff1681526020016000820160119054906101000a900460ff1660ff1660ff16815250509050919050565b61010160009054906101000a900473ffffffffffffffffffffffffffffffffffffffff1681565b6118d4612f62565b600060fd805490501461191c576040517f08c379a0000000000000000000000000000000000000000000000000000000008152600401611913906146a7565b60405180910390fd5b60008484905090506000805b82811015611b5b5760405180606001604052804264ffffffffff16815260200186868481811061195b5761195a614f4d565b5b90506020020160208101906119709190613e6a565b6bffffffffffffffffffffffff1681526020018260ff1681525060fe60008989858181106119a1576119a0614f4d565b5b90506020020160208101906119b691906139e1565b73ffffffffffffffffffffffffffffffffffffffff1673ffffffffffffffffffffffffffffffffffffffff16815260200190815260200160002060008201518160000160006101000a81548164ffffffffff021916908364ffffffffff16021790555060208201518160000160056101000a8154816bffffffffffffffffffffffff02191690836bffffffffffffffffffffffff16021790555060408201518160000160116101000a81548160ff021916908360ff16021790555090505060fd878783818110611a8957611a88614f4d565b5b9050602002016020810190611a9e91906139e1565b9080600181540180825580915050600190039060005260206000200160009091909190916101000a81548173ffffffffffffffffffffffffffffffffffffffff021916908373ffffffffffffffffffffffffffffffffffffffff160217905550611b46858583818110611b1457611b13614f4d565b5b9050602002016020810190611b299190613e6a565b6bffffffffffffffffffffffff1683612f4c90919063ffffffff16565b91508080611b5390614e77565b915050611928565b506127108114611ba0576040517f08c379a0000000000000000000000000000000000000000000000000000000008152600401611b9790614787565b60405180910390fd5b7f183bed17d33ee5be9a47bb997aee6a152d84a34309cdb66f76301de0a40a138960405160405180910390a1505050505050565b6000603360008373ffffffffffffffffffffffffffffffffffffffff1673ffffffffffffffffffffffffffffffffffffffff168152602001908152602001600020549050919050565b61010060009054906101000a900473ffffffffffffffffffffffffffffffffffffffff1681565b61010260009054906101000a900473ffffffffffffffffffffffffffffffffffffffff1681565b611c73612f62565b611c7d6000612fe0565b565b611c9182611c8b612331565b83612c3c565b611c9b8282612504565b5050565b6000609760009054906101000a900473ffffffffffffffffffffffffffffffffffffffff16905090565b606060378054611cd890614e14565b80601f0160208091040260200160405190810160405280929190818152602001828054611d0490614e14565b8015611d515780601f10611d2657610100808354040283529160200191611d51565b820191906000526020600020905b815481529060010190602001808311611d3457829003601f168201915b5050505050905090565b7f1effbbff9c66c5e59634f24fe842750c60d18891155c32dd155fc2d661a4c86d81565b600080611d8a612331565b90506000611d9882866121fa565b905083811015611ddd576040517f08c379a0000000000000000000000000000000000000000000000000000000008152600401611dd490614907565b60405180910390fd5b611dea8286868403612339565b60019250505092915050565b7fb1fadd3142ab2ad7f1337ea4d97112bcc8337fc11ce5b20cb04ad038adf9981981565b611e2488886130a6565b8460fc60006101000a81548173ffffffffffffffffffffffffffffffffffffffff021916908373ffffffffffffffffffffffffffffffffffffffff1602179055508561010060006101000a81548173ffffffffffffffffffffffffffffffffffffffff021916908373ffffffffffffffffffffffffffffffffffffffff1602179055508360ff819055508261010160006101000a81548173ffffffffffffffffffffffffffffffffffffffff021916908373ffffffffffffffffffffffffffffffffffffffff1602179055508161010260006101000a81548173ffffffffffffffffffffffffffffffffffffffff021916908373ffffffffffffffffffffffffffffffffffffffff1602179055508061010360006101000a81548173ffffffffffffffffffffffffffffffffffffffff021916908373ffffffffffffffffffffffffffffffffffffffff16021790555061010360009054906101000a900473ffffffffffffffffffffffffffffffffffffffff1673ffffffffffffffffffffffffffffffffffffffff16631e4e00917f1916b456004f332cd8a19679364ef4be668619658be72c17b7e86697c4ae0f167f1effbbff9c66c5e59634f24fe842750c60d18891155c32dd155fc2d661a4c86d6040518363ffffffff1660e01b8152600401612012929190614532565b600060405180830381600087803b15801561202c57600080fd5b505af1158015612040573d6000803e3d6000fd5b5050505061010360009054906101000a900473ffffffffffffffffffffffffffffffffffffffff1673ffffffffffffffffffffffffffffffffffffffff1663fa82ac767f1916b456004f332cd8a19679364ef4be668619658be72c17b7e86697c4ae0f16306040518363ffffffff1660e01b81526004016120c2929190614509565b600060405180830381600087803b1580156120dc57600080fd5b505af11580156120f0573d6000803e3d6000fd5b505050505050505050505050565b600080612109612331565b9050612116818585612cc8565b600191505092915050565b606060fd8054806020026020016040519081016040528092919081815260200182805480156121a557602002820191906000526020600020905b8160009054906101000a900473ffffffffffffffffffffffffffffffffffffffff1673ffffffffffffffffffffffffffffffffffffffff168152602001906001019080831161215b575b5050505050905090565b7f1916b456004f332cd8a19679364ef4be668619658be72c17b7e86697c4ae0f1681565b61010360009054906101000a900473ffffffffffffffffffffffffffffffffffffffff1681565b6000603460008473ffffffffffffffffffffffffffffffffffffffff1673ffffffffffffffffffffffffffffffffffffffff16815260200190815260200160002060008373ffffffffffffffffffffffffffffffffffffffff1673ffffffffffffffffffffffffffffffffffffffff16815260200190815260200160002054905092915050565b61271081565b61228f612f62565b600073ffffffffffffffffffffffffffffffffffffffff168173ffffffffffffffffffffffffffffffffffffffff1614156122ff576040517f08c379a00000000000000000000000000000000000000000000000000000000081526004016122f6906146e7565b60405180910390fd5b61230881612fe0565b50565b60fc60009054906101000a900473ffffffffffffffffffffffffffffffffffffffff1681565b600033905090565b600073ffffffffffffffffffffffffffffffffffffffff168373ffffffffffffffffffffffffffffffffffffffff1614156123a9576040517f08c379a00000000000000000000000000000000000000000000000000000000081526004016123a090614887565b60405180910390fd5b600073ffffffffffffffffffffffffffffffffffffffff168273ffffffffffffffffffffffffffffffffffffffff161415612419576040517f08c379a000000000000000000000000000000000000000000000000000000000815260040161241090614707565b60405180910390fd5b80603460008573ffffffffffffffffffffffffffffffffffffffff1673ffffffffffffffffffffffffffffffffffffffff16815260200190815260200160002060008473ffffffffffffffffffffffffffffffffffffffff1673ffffffffffffffffffffffffffffffffffffffff168152602001908152602001600020819055508173ffffffffffffffffffffffffffffffffffffffff168373ffffffffffffffffffffffffffffffffffffffff167f8c5be1e5ebec7d5bd14f71427d1e84f3dd0314c0f7b2291e5b200ac8c7c3b925836040516124f791906149a2565b60405180910390a3505050565b600073ffffffffffffffffffffffffffffffffffffffff168273ffffffffffffffffffffffffffffffffffffffff161415612574576040517f08c379a000000000000000000000000000000000000000000000000000000000815260040161256b90614847565b60405180910390fd5b61258082600083613200565b6000603360008473ffffffffffffffffffffffffffffffffffffffff1673ffffffffffffffffffffffffffffffffffffffff16815260200190815260200160002054905081811015612607576040517f08c379a00000000000000000000000000000000000000000000000000000000081526004016125fe906146c7565b60405180910390fd5b818103603360008573ffffffffffffffffffffffffffffffffffffffff1673ffffffffffffffffffffffffffffffffffffffff16815260200190815260200160002081905550816035600082825461265f9190614c2c565b92505081905550600073ffffffffffffffffffffffffffffffffffffffff168373ffffffffffffffffffffffffffffffffffffffff167fddf252ad1be2c89b69c2b068fc378daa952ba7f163c4a11628f55a4df523b3ef846040516126c491906149a2565b60405180910390a36126d883600084613205565b505050565b600081836126eb9190614bd2565b905092915050565b600081836127019190614ba1565b905092915050565b600080600090505b60fd80549050811015612a9957600060fd828154811061273457612733614f4d565b5b9060005260206000200160009054906101000a900473ffffffffffffffffffffffffffffffffffffffff169050600060fe60008373ffffffffffffffffffffffffffffffffffffffff1673ffffffffffffffffffffffffffffffffffffffff1681526020019081526020016000206040518060600160405290816000820160009054906101000a900464ffffffffff1664ffffffffff1664ffffffffff1681526020016000820160059054906101000a90046bffffffffffffffffffffffff166bffffffffffffffffffffffff166bffffffffffffffffffffffff1681526020016000820160119054906101000a900460ff1660ff1660ff1681525050905060008061283e610f45565b14156128845761287d61271061286f84602001516bffffffffffffffffffffffff168a6126dd90919063ffffffff16565b6126f390919063ffffffff16565b90506128a2565b85848151811061289757612896614f4d565b5b602002602001015190505b804710156128e5576040517f08c379a00000000000000000000000000000000000000000000000000000000081526004016128dc90614727565b60405180910390fd5b600061010260009054906101000a900473ffffffffffffffffffffffffffffffffffffffff1673ffffffffffffffffffffffffffffffffffffffff166362a41e7e83868560fc60009054906101000a900473ffffffffffffffffffffffffffffffffffffffff166040518563ffffffff1660e01b815260040161296a9392919061447a565b6020604051808303818588803b15801561298357600080fd5b505af1158015612997573d6000803e3d6000fd5b50505050506040513d601f19601f820116820180604052508101906129bc9190613e3d565b9050612a8061010160009054906101000a900473ffffffffffffffffffffffffffffffffffffffff1673ffffffffffffffffffffffffffffffffffffffff1663bea8c90a3087856040518463ffffffff1660e01b8152600401612a21939291906145c7565b60206040518083038186803b158015612a3957600080fd5b505afa158015612a4d573d6000803e3d6000fd5b505050506040513d601f19601f82011682018060405250810190612a719190613e3d565b87612f4c90919063ffffffff16565b9550505050508080612a9190614e77565b915050612711565b5092915050565b600080612aab610f45565b9050612ad283612ac483876126dd90919063ffffffff16565b6126f390919063ffffffff16565b91505092915050565b600073ffffffffffffffffffffffffffffffffffffffff168273ffffffffffffffffffffffffffffffffffffffff161415612b4b576040517f08c379a0000000000000000000000000000000000000000000000000000000008152600401612b4290614947565b60405180910390fd5b612b5760008383613200565b8060356000828254612b699190614b4b565b9250508190555080603360008473ffffffffffffffffffffffffffffffffffffffff1673ffffffffffffffffffffffffffffffffffffffff1681526020019081526020016000206000828254612bbf9190614b4b565b925050819055508173ffffffffffffffffffffffffffffffffffffffff16600073ffffffffffffffffffffffffffffffffffffffff167fddf252ad1be2c89b69c2b068fc378daa952ba7f163c4a11628f55a4df523b3ef83604051612c2491906149a2565b60405180910390a3612c3860008383613205565b5050565b6000612c4884846121fa565b90507fffffffffffffffffffffffffffffffffffffffffffffffffffffffffffffffff8114612cc25781811015612cb4576040517f08c379a0000000000000000000000000000000000000000000000000000000008152600401612cab90614747565b60405180910390fd5b612cc18484848403612339565b5b50505050565b600073ffffffffffffffffffffffffffffffffffffffff168373ffffffffffffffffffffffffffffffffffffffff161415612d38576040517f08c379a0000000000000000000000000000000000000000000000000000000008152600401612d2f90614867565b60405180910390fd5b600073ffffffffffffffffffffffffffffffffffffffff168273ffffffffffffffffffffffffffffffffffffffff161415612da8576040517f08c379a0000000000000000000000000000000000000000000000000000000008152600401612d9f90614687565b60405180910390fd5b612db3838383613200565b6000603360008573ffffffffffffffffffffffffffffffffffffffff1673ffffffffffffffffffffffffffffffffffffffff16815260200190815260200160002054905081811015612e3a576040517f08c379a0000000000000000000000000000000000000000000000000000000008152600401612e3190614767565b60405180910390fd5b818103603360008673ffffffffffffffffffffffffffffffffffffffff1673ffffffffffffffffffffffffffffffffffffffff1681526020019081526020016000208190555081603360008573ffffffffffffffffffffffffffffffffffffffff1673ffffffffffffffffffffffffffffffffffffffff1681526020019081526020016000206000828254612ecf9190614b4b565b925050819055508273ffffffffffffffffffffffffffffffffffffffff168473ffffffffffffffffffffffffffffffffffffffff167fddf252ad1be2c89b69c2b068fc378daa952ba7f163c4a11628f55a4df523b3ef84604051612f3391906149a2565b60405180910390a3612f46848484613205565b50505050565b60008183612f5a9190614b4b565b905092915050565b612f6a612331565b73ffffffffffffffffffffffffffffffffffffffff16612f88611c9f565b73ffffffffffffffffffffffffffffffffffffffff1614612fde576040517f08c379a0000000000000000000000000000000000000000000000000000000008152600401612fd590614827565b60405180910390fd5b565b6000609760009054906101000a900473ffffffffffffffffffffffffffffffffffffffff16905081609760006101000a81548173ffffffffffffffffffffffffffffffffffffffff021916908373ffffffffffffffffffffffffffffffffffffffff1602179055508173ffffffffffffffffffffffffffffffffffffffff168173ffffffffffffffffffffffffffffffffffffffff167f8be0079c531659141344cd1fd0a4f28419497f9722a3daafe3b4186f6b6457e060405160405180910390a35050565b60008060019054906101000a900460ff161590508080156130d75750600160008054906101000a900460ff1660ff16105b8061310457506130e63061320a565b1580156131035750600160008054906101000a900460ff1660ff16145b5b613143576040517f08c379a000000000000000000000000000000000000000000000000000000000815260040161313a906147c7565b60405180910390fd5b60016000806101000a81548160ff021916908360ff1602179055508015613180576001600060016101000a81548160ff0219169083151502179055505b61318a838361322d565b61319261328a565b61319a6132db565b6131a2613334565b80156131fb5760008060016101000a81548160ff0219169083151502179055507f7f26b83ff96e1f2b6a682f133852f6798a09c465da95921460cefb384740249860016040516131f2919061464a565b60405180910390a15b505050565b505050565b505050565b6000808273ffffffffffffffffffffffffffffffffffffffff163b119050919050565b600060019054906101000a900460ff1661327c576040517f08c379a0000000000000000000000000000000000000000000000000000000008152600401613273906148a7565b60405180910390fd5b613286828261338d565b5050565b600060019054906101000a900460ff166132d9576040517f08c379a00000000000000000000000000000000000000000000000000000000081526004016132d0906148a7565b60405180910390fd5b565b600060019054906101000a900460ff1661332a576040517f08c379a0000000000000000000000000000000000000000000000000000000008152600401613321906148a7565b60405180910390fd5b61333261340e565b565b600060019054906101000a900460ff16613383576040517f08c379a000000000000000000000000000000000000000000000000000000000815260040161337a906148a7565b60405180910390fd5b61338b61346f565b565b600060019054906101000a900460ff166133dc576040517f08c379a00000000000000000000000000000000000000000000000000000000081526004016133d3906148a7565b60405180910390fd5b81603690805190602001906133f292919061358b565b50806037908051906020019061340992919061358b565b505050565b600060019054906101000a900460ff1661345d576040517f08c379a0000000000000000000000000000000000000000000000000000000008152600401613454906148a7565b60405180910390fd5b61346d613468612331565b612fe0565b565b600060019054906101000a900460ff166134be576040517f08c379a00000000000000000000000000000000000000000000000000000000081526004016134b5906148a7565b60405180910390fd5b600160c981905550565b828054828255906000526020600020908101928215613541579160200282015b828111156135405782518260006101000a81548173ffffffffffffffffffffffffffffffffffffffff021916908373ffffffffffffffffffffffffffffffffffffffff160217905550916020019190600101906134e8565b5b50905061354e9190613611565b5090565b6040518060600160405280600064ffffffffff16815260200160006bffffffffffffffffffffffff168152602001600060ff1681525090565b82805461359790614e14565b90600052602060002090601f0160209004810192826135b95760008555613600565b82601f106135d257805160ff1916838001178555613600565b82800160010185558215613600579182015b828111156135ff5782518255916020019190600101906135e4565b5b50905061360d9190613611565b5090565b5b8082111561362a576000816000905550600101613612565b5090565b600061364161363c846149fd565b6149d8565b9050808382526020820190508285602086028201111561366457613663614fb5565b5b60005b85811015613694578161367a88826137c0565b845260208401935060208301925050600181019050613667565b5050509392505050565b60006136b16136ac84614a29565b6149d8565b905080838252602082019050828560208602820111156136d4576136d3614fb5565b5b60005b8581101561370457816136ea88826139b7565b8452602084019350602083019250506001810190506136d7565b5050509392505050565b600061372161371c84614a55565b6149d8565b9050808382526020820190508285602086028201111561374457613743614fb5565b5b60005b85811015613774578161375a88826139cc565b845260208401935060208301925050600181019050613747565b5050509392505050565b600061379161378c84614a81565b6149d8565b9050828152602081018484840111156137ad576137ac614fba565b5b6137b8848285614dd2565b509392505050565b6000813590506137cf816155ef565b92915050565b6000815190506137e4816155ef565b92915050565b60008083601f840112613800576137ff614fb0565b5b8235905067ffffffffffffffff81111561381d5761381c614fab565b5b60208301915083602082028301111561383957613838614fb5565b5b9250929050565b600082601f83011261385557613854614fb0565b5b813561386584826020860161362e565b91505092915050565b600082601f83011261388357613882614fb0565b5b815161389384826020860161369e565b91505092915050565b60008083601f8401126138b2576138b1614fb0565b5b8235905067ffffffffffffffff8111156138cf576138ce614fab565b5b6020830191508360208202830111156138eb576138ea614fb5565b5b9250929050565b600082601f83011261390757613906614fb0565b5b813561391784826020860161370e565b91505092915050565b60008151905061392f81615606565b92915050565b6000813590506139448161561d565b92915050565b60008135905061395981615634565b92915050565b60008135905061396e8161564b565b92915050565b600082601f83011261398957613988614fb0565b5b813561399984826020860161377e565b91505092915050565b6000813590506139b181615662565b92915050565b6000815190506139c681615662565b92915050565b6000813590506139db81615679565b92915050565b6000602082840312156139f7576139f6614fc4565b5b6000613a05848285016137c0565b91505092915050565b600060208284031215613a2457613a23614fc4565b5b6000613a32848285016137d5565b91505092915050565b60008060408385031215613a5257613a51614fc4565b5b6000613a60858286016137c0565b9250506020613a71858286016137c0565b9150509250929050565b600080600060608486031215613a9457613a93614fc4565b5b6000613aa2868287016137c0565b9350506020613ab3868287016137c0565b9250506040613ac4868287016139a2565b9150509250925092565b60008060408385031215613ae557613ae4614fc4565b5b6000613af3858286016137c0565b9250506020613b04858286016139a2565b9150509250929050565b60008060008060408587031215613b2857613b27614fc4565b5b600085013567ffffffffffffffff811115613b4657613b45614fbf565b5b613b52878288016137ea565b9450945050602085013567ffffffffffffffff811115613b7557613b74614fbf565b5b613b818782880161389c565b925092505092959194509250565b600060208284031215613ba557613ba4614fc4565b5b600082013567ffffffffffffffff811115613bc357613bc2614fbf565b5b613bcf84828501613840565b91505092915050565b60008060408385031215613bef57613bee614fc4565b5b600083013567ffffffffffffffff811115613c0d57613c0c614fbf565b5b613c1985828601613840565b925050602083013567ffffffffffffffff811115613c3a57613c39614fbf565b5b613c46858286016138f2565b9150509250929050565b600060208284031215613c6657613c65614fc4565b5b600082015167ffffffffffffffff811115613c8457613c83614fbf565b5b613c908482850161386e565b91505092915050565b60008060408385031215613cb057613caf614fc4565b5b600083015167ffffffffffffffff811115613cce57613ccd614fbf565b5b613cda8582860161386e565b9250506020613ceb858286016139b7565b9150509250929050565b600060208284031215613d0b57613d0a614fc4565b5b6000613d1984828501613920565b91505092915050565b600080600080600080600080610100898b031215613d4357613d42614fc4565b5b600089013567ffffffffffffffff811115613d6157613d60614fbf565b5b613d6d8b828c01613974565b985050602089013567ffffffffffffffff811115613d8e57613d8d614fbf565b5b613d9a8b828c01613974565b9750506040613dab8b828c016137c0565b9650506060613dbc8b828c016137c0565b9550506080613dcd8b828c016139a2565b94505060a0613dde8b828c0161395f565b93505060c0613def8b828c0161394a565b92505060e0613e008b828c01613935565b9150509295985092959890939650565b600060208284031215613e2657613e25614fc4565b5b6000613e34848285016139a2565b91505092915050565b600060208284031215613e5357613e52614fc4565b5b6000613e61848285016139b7565b91505092915050565b600060208284031215613e8057613e7f614fc4565b5b6000613e8e848285016139cc565b91505092915050565b6000613ea38383613ec7565b60208301905092915050565b6000613ebb83836143f0565b60208301905092915050565b613ed081614c60565b82525050565b613edf81614c60565b82525050565b6000613ef082614ad2565b613efa8185614b0d565b9350613f0583614ab2565b8060005b83811015613f36578151613f1d8882613e97565b9750613f2883614af3565b925050600181019050613f09565b5085935050505092915050565b6000613f4e82614add565b613f588185614b1e565b9350613f6383614ac2565b8060005b83811015613f94578151613f7b8882613eaf565b9750613f8683614b00565b925050600181019050613f67565b5085935050505092915050565b613faa81614c84565b82525050565b613fb981614c90565b82525050565b613fc881614d30565b82525050565b613fd781614d54565b82525050565b613fe681614d78565b82525050565b613ff581614d9c565b82525050565b61400481614dc0565b82525050565b600061401582614ae8565b61401f8185614b3a565b935061402f818560208601614de1565b61403881614fc9565b840191505092915050565b6000614050602383614b3a565b915061405b82614fda565b604082019050919050565b6000614073600b83614b3a565b915061407e82615029565b602082019050919050565b6000614096602283614b3a565b91506140a182615052565b604082019050919050565b60006140b9602683614b3a565b91506140c4826150a1565b604082019050919050565b60006140dc602283614b3a565b91506140e7826150f0565b604082019050919050565b60006140ff600e83614b3a565b915061410a8261513f565b602082019050919050565b6000614122601d83614b3a565b915061412d82615168565b602082019050919050565b6000614145602683614b3a565b915061415082615191565b604082019050919050565b6000614168600f83614b3a565b9150614173826151e0565b602082019050919050565b600061418b602983614b3a565b915061419682615209565b604082019050919050565b60006141ae602e83614b3a565b91506141b982615258565b604082019050919050565b60006141d1602483614b3a565b91506141dc826152a7565b604082019050919050565b60006141f4602883614b3a565b91506141ff826152f6565b604082019050919050565b6000614217602083614b3a565b915061422282615345565b602082019050919050565b600061423a602183614b3a565b91506142458261536e565b604082019050919050565b600061425d602583614b3a565b9150614268826153bd565b604082019050919050565b6000614280600083614b2f565b915061428b8261540c565b600082019050919050565b60006142a3602483614b3a565b91506142ae8261540f565b604082019050919050565b60006142c6602b83614b3a565b91506142d18261545e565b604082019050919050565b60006142e9600f83614b3a565b91506142f4826154ad565b602082019050919050565b600061430c601f83614b3a565b9150614317826154d6565b602082019050919050565b600061432f602583614b3a565b915061433a826154ff565b604082019050919050565b6000614352600d83614b3a565b915061435d8261554e565b602082019050919050565b6000614375601f83614b3a565b915061438082615577565b602082019050919050565b6000614398603283614b3a565b91506143a3826155a0565b604082019050919050565b6060820160008201516143c4600085018261440e565b5060208201516143d7602085018261443b565b5060408201516143ea604085018261441d565b50505050565b6143f981614cf0565b82525050565b61440881614cf0565b82525050565b61441781614cfa565b82525050565b61442681614d0b565b82525050565b61443581614d0b565b82525050565b61444481614d18565b82525050565b600061445582614273565b9150819050919050565b60006020820190506144746000830184613ed6565b92915050565b600060608201905061448f6000830186613ed6565b61449c60208301856143ff565b6144a96040830184613ed6565b949350505050565b600060208201905081810360008301526144cb8184613ee5565b905092915050565b60006020820190506144e86000830184613fa1565b92915050565b60006020820190506145036000830184613fb0565b92915050565b600060408201905061451e6000830185613fb0565b61452b6020830184613ed6565b9392505050565b60006040820190506145476000830185613fb0565b6145546020830184613fb0565b9392505050565b60006020820190506145706000830184613fbf565b92915050565b600060208201905061458b6000830184613fce565b92915050565b60006020820190506145a66000830184613fdd565b92915050565b60006020820190506145c16000830184613fec565b92915050565b60006060820190506145dc6000830186613fec565b6145e96020830185613ed6565b6145f660408301846143ff565b949350505050565b60006080820190506146136000830187613fec565b61462060208301866143ff565b81810360408301526146328185613f43565b905061464160608301846143ff565b95945050505050565b600060208201905061465f6000830184613ffb565b92915050565b6000602082019050818103600083015261467f818461400a565b905092915050565b600060208201905081810360008301526146a081614043565b9050919050565b600060208201905081810360008301526146c081614066565b9050919050565b600060208201905081810360008301526146e081614089565b9050919050565b60006020820190508181036000830152614700816140ac565b9050919050565b60006020820190508181036000830152614720816140cf565b9050919050565b60006020820190508181036000830152614740816140f2565b9050919050565b6000602082019050818103600083015261476081614115565b9050919050565b6000602082019050818103600083015261478081614138565b9050919050565b600060208201905081810360008301526147a08161415b565b9050919050565b600060208201905081810360008301526147c08161417e565b9050919050565b600060208201905081810360008301526147e0816141a1565b9050919050565b60006020820190508181036000830152614800816141c4565b9050919050565b60006020820190508181036000830152614820816141e7565b9050919050565b600060208201905081810360008301526148408161420a565b9050919050565b600060208201905081810360008301526148608161422d565b9050919050565b6000602082019050818103600083015261488081614250565b9050919050565b600060208201905081810360008301526148a081614296565b9050919050565b600060208201905081810360008301526148c0816142b9565b9050919050565b600060208201905081810360008301526148e0816142dc565b9050919050565b60006020820190508181036000830152614900816142ff565b9050919050565b6000602082019050818103600083015261492081614322565b9050919050565b6000602082019050818103600083015261494081614345565b9050919050565b6000602082019050818103600083015261496081614368565b9050919050565b600060208201905081810360008301526149808161438b565b9050919050565b600060608201905061499c60008301846143ae565b92915050565b60006020820190506149b760008301846143ff565b92915050565b60006020820190506149d2600083018461442c565b92915050565b60006149e26149f3565b90506149ee8282614e46565b919050565b6000604051905090565b600067ffffffffffffffff821115614a1857614a17614f7c565b5b602082029050602081019050919050565b600067ffffffffffffffff821115614a4457614a43614f7c565b5b602082029050602081019050919050565b600067ffffffffffffffff821115614a7057614a6f614f7c565b5b602082029050602081019050919050565b600067ffffffffffffffff821115614a9c57614a9b614f7c565b5b614aa582614fc9565b9050602081019050919050565b6000819050602082019050919050565b6000819050602082019050919050565b600081519050919050565b600081519050919050565b600081519050919050565b6000602082019050919050565b6000602082019050919050565b600082825260208201905092915050565b600082825260208201905092915050565b600081905092915050565b600082825260208201905092915050565b6000614b5682614cf0565b9150614b6183614cf0565b9250827fffffffffffffffffffffffffffffffffffffffffffffffffffffffffffffffff03821115614b9657614b95614ec0565b5b828201905092915050565b6000614bac82614cf0565b9150614bb783614cf0565b925082614bc757614bc6614eef565b5b828204905092915050565b6000614bdd82614cf0565b9150614be883614cf0565b9250817fffffffffffffffffffffffffffffffffffffffffffffffffffffffffffffffff0483118215151615614c2157614c20614ec0565b5b828202905092915050565b6000614c3782614cf0565b9150614c4283614cf0565b925082821015614c5557614c54614ec0565b5b828203905092915050565b6000614c6b82614cd0565b9050919050565b6000614c7d82614cd0565b9050919050565b60008115159050919050565b6000819050919050565b6000614ca582614c60565b9050919050565b6000614cb782614c72565b9050919050565b6000614cc982614c60565b9050919050565b600073ffffffffffffffffffffffffffffffffffffffff82169050919050565b6000819050919050565b600064ffffffffff82169050919050565b600060ff82169050919050565b60006bffffffffffffffffffffffff82169050919050565b6000614d3b82614d42565b9050919050565b6000614d4d82614cd0565b9050919050565b6000614d5f82614d66565b9050919050565b6000614d7182614cd0565b9050919050565b6000614d8382614d8a565b9050919050565b6000614d9582614cd0565b9050919050565b6000614da782614dae565b9050919050565b6000614db982614cd0565b9050919050565b6000614dcb82614d0b565b9050919050565b82818337600083830152505050565b60005b83811015614dff578082015181840152602081019050614de4565b83811115614e0e576000848401525b50505050565b60006002820490506001821680614e2c57607f821691505b60208210811415614e4057614e3f614f1e565b5b50919050565b614e4f82614fc9565b810181811067ffffffffffffffff82111715614e6e57614e6d614f7c565b5b80604052505050565b6000614e8282614cf0565b91507fffffffffffffffffffffffffffffffffffffffffffffffffffffffffffffffff821415614eb557614eb4614ec0565b5b600182019050919050565b7f4e487b7100000000000000000000000000000000000000000000000000000000600052601160045260246000fd5b7f4e487b7100000000000000000000000000000000000000000000000000000000600052601260045260246000fd5b7f4e487b7100000000000000000000000000000000000000000000000000000000600052602260045260246000fd5b7f4e487b7100000000000000000000000000000000000000000000000000000000600052603260045260246000fd5b7f4e487b7100000000000000000000000000000000000000000000000000000000600052604160045260246000fd5b600080fd5b600080fd5b600080fd5b600080fd5b600080fd5b600080fd5b6000601f19601f8301169050919050565b7f45524332303a207472616e7366657220746f20746865207a65726f206164647260008201527f6573730000000000000000000000000000000000000000000000000000000000602082015250565b7f494e495449414c495a4544000000000000000000000000000000000000000000600082015250565b7f45524332303a206275726e20616d6f756e7420657863656564732062616c616e60008201527f6365000000000000000000000000000000000000000000000000000000000000602082015250565b7f4f776e61626c653a206e6577206f776e657220697320746865207a65726f206160008201527f6464726573730000000000000000000000000000000000000000000000000000602082015250565b7f45524332303a20617070726f766520746f20746865207a65726f20616464726560008201527f7373000000000000000000000000000000000000000000000000000000000000602082015250565b7f6e6f7420656e6f75676820626e62000000000000000000000000000000000000600082015250565b7f45524332303a20696e73756666696369656e7420616c6c6f77616e6365000000600082015250565b7f45524332303a207472616e7366657220616d6f756e742065786365656473206260008201527f616c616e63650000000000000000000000000000000000000000000000000000602082015250565b7f494e56414c49445f574549474854530000000000000000000000000000000000600082015250565b7f416d6f756e742065786365656473206d6178696d756d20696e766573746d656e60008201527f7420616d6f756e74210000000000000000000000000000000000000000000000602082015250565b7f496e697469616c697a61626c653a20636f6e747261637420697320616c72656160008201527f647920696e697469616c697a6564000000000000000000000000000000000000602082015250565b7f43616c6c6572206973206e6f7420616e20526562616c616e63657220436f6e7460008201527f7261637400000000000000000000000000000000000000000000000000000000602082015250565b7f63616c6c6572206973206e6f7420686f6c64696e6720676976656e20746f6b6560008201527f6e20616d6f756e74000000000000000000000000000000000000000000000000602082015250565b7f4f776e61626c653a2063616c6c6572206973206e6f7420746865206f776e6572600082015250565b7f45524332303a206275726e2066726f6d20746865207a65726f2061646472657360008201527f7300000000000000000000000000000000000000000000000000000000000000602082015250565b7f45524332303a207472616e736665722066726f6d20746865207a65726f20616460008201527f6472657373000000000000000000000000000000000000000000000000000000602082015250565b50565b7f45524332303a20617070726f76652066726f6d20746865207a65726f2061646460008201527f7265737300000000000000000000000000000000000000000000000000000000602082015250565b7f496e697469616c697a61626c653a20636f6e7472616374206973206e6f74206960008201527f6e697469616c697a696e67000000000000000000000000000000000000000000602082015250565b7f4e4f5420494e495449414c495a45440000000000000000000000000000000000600082015250565b7f5265656e7472616e637947756172643a207265656e7472616e742063616c6c00600082015250565b7f45524332303a2064656372656173656420616c6c6f77616e63652062656c6f7760008201527f207a65726f000000000000000000000000000000000000000000000000000000602082015250565b7f726566756e64206661696c656400000000000000000000000000000000000000600082015250565b7f45524332303a206d696e7420746f20746865207a65726f206164647265737300600082015250565b7f616d6f756e7420616674657220736c6970706167652063616e2774206265206760008201527f726561746572207468616e206265666f72650000000000000000000000000000602082015250565b6155f881614c60565b811461560357600080fd5b50565b61560f81614c84565b811461561a57600080fd5b50565b61562681614c9a565b811461563157600080fd5b50565b61563d81614cac565b811461564857600080fd5b50565b61565481614cbe565b811461565f57600080fd5b50565b61566b81614cf0565b811461567657600080fd5b50565b61568281614d18565b811461568d57600080fd5b5056fea2646970667358221220bbe409ee94b979a5af59442952a557dd01b2144da1996bde1bdcb3b45b9b202064736f6c63430008060033",
  "devdoc": {
    "events": {
      "LOG_PUBLIC_SWAP_ENABLED()": {
        "details": "Emitted when public trades are enabled. "
      }
    },
    "kind": "dev",
    "methods": {
      "allowance(address,address)": {
        "details": "See {IERC20-allowance}."
      },
      "approve(address,uint256)": {
        "details": "See {IERC20-approve}. NOTE: If `amount` is the maximum `uint256`, the allowance is not updated on `transferFrom`. This is semantically equivalent to an infinite approval. Requirements: - `spender` cannot be the zero address."
      },
      "balanceOf(address)": {
        "details": "See {IERC20-balanceOf}."
      },
      "burn(uint256)": {
        "details": "Destroys `amount` tokens from the caller. See {ERC20-_burn}."
      },
      "burnFrom(address,uint256)": {
        "details": "Destroys `amount` tokens from `account`, deducting from the caller's allowance. See {ERC20-_burn} and {ERC20-allowance}. Requirements: - the caller must have allowance for ``accounts``'s tokens of at least `amount`."
      },
      "decimals()": {
        "details": "Returns the number of decimals used to get its user representation. For example, if `decimals` equals `2`, a balance of `505` tokens should be displayed to a user as `5.05` (`505 / 10 ** 2`). Tokens usually opt for a value of 18, imitating the relationship between Ether and Wei. This is the value {ERC20} uses, unless this function is overridden; NOTE: This information is only used for _display_ purposes: it in no way affects any of the arithmetic of the contract, including {IERC20-balanceOf} and {IERC20-transfer}."
      },
      "decreaseAllowance(address,uint256)": {
        "details": "Atomically decreases the allowance granted to `spender` by the caller. This is an alternative to {approve} that can be used as a mitigation for problems described in {IERC20-approve}. Emits an {Approval} event indicating the updated allowance. Requirements: - `spender` cannot be the zero address. - `spender` must have allowance for the caller of at least `subtractedValue`."
      },
      "increaseAllowance(address,uint256)": {
        "details": "Atomically increases the allowance granted to `spender` by the caller. This is an alternative to {approve} that can be used as a mitigation for problems described in {IERC20-approve}. Emits an {Approval} event indicating the updated allowance. Requirements: - `spender` cannot be the zero address."
      },
      "init(address[],uint96[])": {
        "details": "Sets up the initial assets for the pool.",
        "params": {
          "denorms": "Initial denormalized weights for the tokens",
          "tokens": "Underlying tokens to initialize the pool with"
        }
      },
      "investInFund()": {
        "details": "The output of the swap is converted into BNB to get the actual amount after slippage to calculate  the index token amount to mint(tokenBalanceInBNB, vaultBalance) has to be calculated before swapping for the _mintShareAmount function  because during the swap the amount will change but the index token balance is still the same  (before minting)"
      },
      "name()": {
        "details": "Returns the name of the token."
      },
      "owner()": {
        "details": "Returns the address of the current owner."
      },
      "renounceOwnership()": {
        "details": "Leaves the contract without owner. It will not be possible to call `onlyOwner` functions anymore. Can only be called by the current owner. NOTE: Renouncing ownership will leave the contract without an owner, thereby removing any functionality that is only available to the owner."
      },
      "symbol()": {
        "details": "Returns the symbol of the token, usually a shorter version of the name."
      },
      "totalSupply()": {
        "details": "See {IERC20-totalSupply}."
      },
      "transfer(address,uint256)": {
        "details": "See {IERC20-transfer}. Requirements: - `to` cannot be the zero address. - the caller must have a balance of at least `amount`."
      },
      "transferFrom(address,address,uint256)": {
        "details": "See {IERC20-transferFrom}. Emits an {Approval} event indicating the updated allowance. This is not required by the EIP. See the note at the beginning of {ERC20}. NOTE: Does not update the allowance if the current allowance is the maximum `uint256`. Requirements: - `from` and `to` cannot be the zero address. - `from` must have a balance of at least `amount`. - the caller must have allowance for ``from``'s tokens of at least `amount`."
      },
      "transferOwnership(address)": {
        "details": "Transfers ownership of the contract to a new account (`newOwner`). Can only be called by the current owner."
      },
      "updateRecords(address[],uint96[])": {
        "details": "The token list is passed so the function can be called with current or updated token list",
        "params": {
          "denorms": "The new weights for for the portfolio",
          "tokens": "The updated token list of the portfolio"
        }
      },
      "withdrawFund(uint256)": {
        "params": {
          "tokenAmount": "The index token amount the user wants to withdraw from the fund"
        }
      }
    },
    "version": 1
  },
  "userdoc": {
    "kind": "user",
    "methods": {
      "investInFund()": {
        "notice": "The function swaps BNB into the portfolio tokens after a user makes an investment"
      },
      "updateRecords(address[],uint96[])": {
        "notice": "The function updates the record struct including the denorm information"
      },
      "withdrawFund(uint256)": {
        "notice": "The function swaps the amount of portfolio tokens represented by the amount of index token back to  BNB and returns it to the user and burns the amount of index token being withdrawn"
      }
    },
    "version": 1
  },
  "storageLayout": {
    "storage": [
      {
        "astId": 1074,
        "contract": "contracts/core/IndexSwap.sol:IndexSwap",
        "label": "_initialized",
        "offset": 0,
        "slot": "0",
        "type": "t_uint8"
      },
      {
        "astId": 1077,
        "contract": "contracts/core/IndexSwap.sol:IndexSwap",
        "label": "_initializing",
        "offset": 1,
        "slot": "0",
        "type": "t_bool"
      },
      {
        "astId": 2339,
        "contract": "contracts/core/IndexSwap.sol:IndexSwap",
        "label": "__gap",
        "offset": 0,
        "slot": "1",
        "type": "t_array(t_uint256)50_storage"
      },
      {
        "astId": 1296,
        "contract": "contracts/core/IndexSwap.sol:IndexSwap",
        "label": "_balances",
        "offset": 0,
        "slot": "51",
        "type": "t_mapping(t_address,t_uint256)"
      },
      {
        "astId": 1302,
        "contract": "contracts/core/IndexSwap.sol:IndexSwap",
        "label": "_allowances",
        "offset": 0,
        "slot": "52",
        "type": "t_mapping(t_address,t_mapping(t_address,t_uint256))"
      },
      {
        "astId": 1304,
        "contract": "contracts/core/IndexSwap.sol:IndexSwap",
        "label": "_totalSupply",
        "offset": 0,
        "slot": "53",
        "type": "t_uint256"
      },
      {
        "astId": 1306,
        "contract": "contracts/core/IndexSwap.sol:IndexSwap",
        "label": "_name",
        "offset": 0,
        "slot": "54",
        "type": "t_string_storage"
      },
      {
        "astId": 1308,
        "contract": "contracts/core/IndexSwap.sol:IndexSwap",
        "label": "_symbol",
        "offset": 0,
        "slot": "55",
        "type": "t_string_storage"
      },
      {
        "astId": 1887,
        "contract": "contracts/core/IndexSwap.sol:IndexSwap",
        "label": "__gap",
        "offset": 0,
        "slot": "56",
        "type": "t_array(t_uint256)45_storage"
      },
      {
        "astId": 2029,
        "contract": "contracts/core/IndexSwap.sol:IndexSwap",
        "label": "__gap",
        "offset": 0,
        "slot": "101",
        "type": "t_array(t_uint256)50_storage"
      },
      {
        "astId": 946,
        "contract": "contracts/core/IndexSwap.sol:IndexSwap",
        "label": "_owner",
        "offset": 0,
        "slot": "151",
        "type": "t_address"
      },
      {
        "astId": 1066,
        "contract": "contracts/core/IndexSwap.sol:IndexSwap",
        "label": "__gap",
        "offset": 0,
        "slot": "152",
        "type": "t_array(t_uint256)49_storage"
      },
      {
        "astId": 1232,
        "contract": "contracts/core/IndexSwap.sol:IndexSwap",
        "label": "_status",
        "offset": 0,
        "slot": "201",
        "type": "t_uint256"
      },
      {
        "astId": 1276,
        "contract": "contracts/core/IndexSwap.sol:IndexSwap",
        "label": "__gap",
        "offset": 0,
        "slot": "202",
        "type": "t_array(t_uint256)49_storage"
      },
      {
        "astId": 4271,
        "contract": "contracts/core/IndexSwap.sol:IndexSwap",
        "label": "indexPrice",
        "offset": 0,
        "slot": "251",
        "type": "t_uint256"
      },
      {
        "astId": 4273,
        "contract": "contracts/core/IndexSwap.sol:IndexSwap",
        "label": "vault",
        "offset": 0,
        "slot": "252",
        "type": "t_address"
      },
      {
        "astId": 4283,
        "contract": "contracts/core/IndexSwap.sol:IndexSwap",
        "label": "_tokens",
        "offset": 0,
        "slot": "253",
        "type": "t_array(t_address)dyn_storage"
      },
      {
        "astId": 4288,
        "contract": "contracts/core/IndexSwap.sol:IndexSwap",
        "label": "_records",
        "offset": 0,
        "slot": "254",
        "type": "t_mapping(t_address,t_struct(Record)4280_storage)"
      },
      {
        "astId": 4293,
        "contract": "contracts/core/IndexSwap.sol:IndexSwap",
        "label": "MAX_INVESTMENTAMOUNT",
        "offset": 0,
        "slot": "255",
        "type": "t_uint256"
      },
      {
        "astId": 4295,
        "contract": "contracts/core/IndexSwap.sol:IndexSwap",
        "label": "outAsset",
        "offset": 0,
        "slot": "256",
        "type": "t_address"
      },
      {
        "astId": 4298,
        "contract": "contracts/core/IndexSwap.sol:IndexSwap",
        "label": "indexSwapLibrary",
        "offset": 0,
        "slot": "257",
        "type": "t_contract(IndexSwapLibrary)5258"
      },
      {
        "astId": 4301,
        "contract": "contracts/core/IndexSwap.sol:IndexSwap",
        "label": "indexManager",
        "offset": 0,
        "slot": "258",
        "type": "t_contract(IndexManager)4214"
      },
      {
        "astId": 4304,
        "contract": "contracts/core/IndexSwap.sol:IndexSwap",
        "label": "accessController",
        "offset": 0,
        "slot": "259",
        "type": "t_contract(AccessController)3939"
      }
    ],
    "types": {
      "t_address": {
        "encoding": "inplace",
        "label": "address",
        "numberOfBytes": "20"
      },
      "t_array(t_address)dyn_storage": {
        "base": "t_address",
        "encoding": "dynamic_array",
        "label": "address[]",
        "numberOfBytes": "32"
      },
      "t_array(t_uint256)45_storage": {
        "base": "t_uint256",
        "encoding": "inplace",
        "label": "uint256[45]",
        "numberOfBytes": "1440"
      },
      "t_array(t_uint256)49_storage": {
        "base": "t_uint256",
        "encoding": "inplace",
        "label": "uint256[49]",
        "numberOfBytes": "1568"
      },
      "t_array(t_uint256)50_storage": {
        "base": "t_uint256",
        "encoding": "inplace",
        "label": "uint256[50]",
        "numberOfBytes": "1600"
      },
      "t_bool": {
        "encoding": "inplace",
        "label": "bool",
        "numberOfBytes": "1"
      },
      "t_contract(AccessController)3939": {
        "encoding": "inplace",
        "label": "contract AccessController",
        "numberOfBytes": "20"
      },
      "t_contract(IndexManager)4214": {
        "encoding": "inplace",
        "label": "contract IndexManager",
        "numberOfBytes": "20"
      },
      "t_contract(IndexSwapLibrary)5258": {
        "encoding": "inplace",
        "label": "contract IndexSwapLibrary",
        "numberOfBytes": "20"
      },
      "t_mapping(t_address,t_mapping(t_address,t_uint256))": {
        "encoding": "mapping",
        "key": "t_address",
        "label": "mapping(address => mapping(address => uint256))",
        "numberOfBytes": "32",
        "value": "t_mapping(t_address,t_uint256)"
      },
      "t_mapping(t_address,t_struct(Record)4280_storage)": {
        "encoding": "mapping",
        "key": "t_address",
        "label": "mapping(address => struct IndexSwap.Record)",
        "numberOfBytes": "32",
        "value": "t_struct(Record)4280_storage"
      },
      "t_mapping(t_address,t_uint256)": {
        "encoding": "mapping",
        "key": "t_address",
        "label": "mapping(address => uint256)",
        "numberOfBytes": "32",
        "value": "t_uint256"
      },
      "t_string_storage": {
        "encoding": "bytes",
        "label": "string",
        "numberOfBytes": "32"
      },
      "t_struct(Record)4280_storage": {
        "encoding": "inplace",
        "label": "struct IndexSwap.Record",
        "members": [
          {
            "astId": 4275,
            "contract": "contracts/core/IndexSwap.sol:IndexSwap",
            "label": "lastDenormUpdate",
            "offset": 0,
            "slot": "0",
            "type": "t_uint40"
          },
          {
            "astId": 4277,
            "contract": "contracts/core/IndexSwap.sol:IndexSwap",
            "label": "denorm",
            "offset": 5,
            "slot": "0",
            "type": "t_uint96"
          },
          {
            "astId": 4279,
            "contract": "contracts/core/IndexSwap.sol:IndexSwap",
            "label": "index",
            "offset": 17,
            "slot": "0",
            "type": "t_uint8"
          }
        ],
        "numberOfBytes": "32"
      },
      "t_uint256": {
        "encoding": "inplace",
        "label": "uint256",
        "numberOfBytes": "32"
      },
      "t_uint40": {
        "encoding": "inplace",
        "label": "uint40",
        "numberOfBytes": "5"
      },
      "t_uint8": {
        "encoding": "inplace",
        "label": "uint8",
        "numberOfBytes": "1"
      },
      "t_uint96": {
        "encoding": "inplace",
        "label": "uint96",
        "numberOfBytes": "12"
      }
    }
  }
}