{
  "address": "0x9C3aA76b58D45ECdA4a831BFc50e03Aa27023400",
  "abi": [
    {
      "inputs": [],
      "name": "ASSET_MANAGER_ROLE",
      "outputs": [
        {
          "internalType": "bytes32",
          "name": "",
          "type": "bytes32"
        }
      ],
      "stateMutability": "view",
      "type": "function"
    },
    {
      "inputs": [
        {
          "internalType": "contract IndexSwap",
          "name": "_index",
          "type": "address"
        },
        {
          "internalType": "address",
          "name": "t",
          "type": "address"
        },
        {
          "internalType": "uint256",
          "name": "amount",
          "type": "uint256"
        }
      ],
      "name": "_getTokenAmountInBNB",
      "outputs": [
        {
          "internalType": "uint256",
          "name": "amountInBNB",
          "type": "uint256"
        }
      ],
      "stateMutability": "view",
      "type": "function"
    },
    {
      "inputs": [
        {
          "internalType": "contract IndexSwap",
          "name": "_index",
          "type": "address"
        },
        {
          "internalType": "uint256",
          "name": "tokenAmount",
          "type": "uint256"
        },
        {
          "internalType": "uint256[]",
          "name": "tokenBalanceInBNB",
          "type": "uint256[]"
        },
        {
          "internalType": "uint256",
          "name": "vaultBalance",
          "type": "uint256"
        }
      ],
      "name": "calculateSwapAmounts",
      "outputs": [
        {
          "internalType": "uint256[]",
          "name": "",
          "type": "uint256[]"
        }
      ],
      "stateMutability": "view",
      "type": "function"
    },
    {
      "inputs": [
        {
          "internalType": "contract IndexSwap",
          "name": "_index",
          "type": "address"
        }
      ],
      "name": "getTokenAndVaultBalance",
      "outputs": [
        {
          "internalType": "uint256[]",
          "name": "tokenXBalance",
          "type": "uint256[]"
        },
        {
          "internalType": "uint256",
          "name": "vaultValue",
          "type": "uint256"
        }
      ],
      "stateMutability": "view",
      "type": "function"
    },
    {
      "inputs": [
        {
          "internalType": "address",
          "name": "_oracle",
          "type": "address"
        },
        {
          "internalType": "address",
          "name": "_weth",
          "type": "address"
        }
      ],
      "name": "initialize",
      "outputs": [],
      "stateMutability": "nonpayable",
      "type": "function"
    }
  ],
  "transactionHash": "0x2897efe02796c1d08e7c8e1ed39edbc06de99b714452d31eafc6b3613df86990",
  "args": [],
  "numDeployments": 1,
  "solcInputHash": "77d8a7f926aaf644c8ba61d719f8b8d7",
  "bytecode": "0x608060405234801561001057600080fd5b506116f6806100206000396000f3fe608060405234801561001057600080fd5b50600436106100575760003560e01c8063441472791461005c578063485cc9551461008d57806381a79d0d146100a9578063a4b32de8146100d9578063bea8c90a146100f7575b600080fd5b61007660048036038101906100719190610e76565b610127565b6040516100849291906110e1565b60405180910390f35b6100a760048036038101906100a29190610ded565b610653565b005b6100c360048036038101906100be9190610ef6565b6106d8565b6040516100d091906110bf565b60405180910390f35b6100e161093d565b6040516100ee9190611111565b60405180910390f35b610111600480360381019061010c9190610ea3565b610961565b60405161011e919061114c565b60405180910390f35b60606000808373ffffffffffffffffffffffffffffffffffffffff1663aa6ca8086040518163ffffffff1660e01b815260040160006040518083038186803b15801561017257600080fd5b505afa158015610186573d6000803e3d6000fd5b505050506040513d6000823e3d601f19601f820116820180604052508101906101af9190610e2d565b5167ffffffffffffffff8111156101c9576101c86115f1565b5b6040519080825280602002602001820160405280156101f75781602001602082028036833780820191505090505b5090506000808573ffffffffffffffffffffffffffffffffffffffff166318160ddd6040518163ffffffff1660e01b815260040160206040518083038186803b15801561024357600080fd5b505afa158015610257573d6000803e3d6000fd5b505050506040513d601f19601f8201168201806040525081019061027b9190610f79565b11156105fb5760005b8573ffffffffffffffffffffffffffffffffffffffff1663aa6ca8086040518163ffffffff1660e01b815260040160006040518083038186803b1580156102ca57600080fd5b505afa1580156102de573d6000803e3d6000fd5b505050506040513d6000823e3d601f19601f820116820180604052508101906103079190610e2d565b518110156105ed5760008673ffffffffffffffffffffffffffffffffffffffff1663aa6ca8086040518163ffffffff1660e01b815260040160006040518083038186803b15801561035757600080fd5b505afa15801561036b573d6000803e3d6000fd5b505050506040513d6000823e3d601f19601f820116820180604052508101906103949190610e2d565b82815181106103a6576103a56115c2565b5b602002602001015173ffffffffffffffffffffffffffffffffffffffff166370a082318873ffffffffffffffffffffffffffffffffffffffff1663fbfa77cf6040518163ffffffff1660e01b815260040160206040518083038186803b15801561040f57600080fd5b505afa158015610423573d6000803e3d6000fd5b505050506040513d601f19601f820116820180604052508101906104479190610dc0565b6040518263ffffffff1660e01b8152600401610463919061107b565b60206040518083038186803b15801561047b57600080fd5b505afa15801561048f573d6000803e3d6000fd5b505050506040513d601f19601f820116820180604052508101906104b39190610f79565b9050600061055e888973ffffffffffffffffffffffffffffffffffffffff1663aa6ca8086040518163ffffffff1660e01b815260040160006040518083038186803b15801561050157600080fd5b505afa158015610515573d6000803e3d6000fd5b505050506040513d6000823e3d601f19601f8201168201806040525081019061053e9190610e2d565b85815181106105505761054f6115c2565b5b602002602001015184610961565b905080858481518110610574576105736115c2565b5b6020026020010181815250506105938185610bd990919063ffffffff16565b9350600084116105d8576040517f08c379a00000000000000000000000000000000000000000000000000000000081526004016105cf9061112c565b60405180910390fd5b505080806105e59061151b565b915050610284565b50818193509350505061064e565b600067ffffffffffffffff811115610616576106156115f1565b5b6040519080825280602002602001820160405280156106445781602001602082028036833780820191505090505b5060009350935050505b915091565b816000806101000a81548173ffffffffffffffffffffffffffffffffffffffff021916908373ffffffffffffffffffffffffffffffffffffffff16021790555080600160006101000a81548173ffffffffffffffffffffffffffffffffffffffff021916908373ffffffffffffffffffffffffffffffffffffffff1602179055505050565b606060008573ffffffffffffffffffffffffffffffffffffffff1663aa6ca8086040518163ffffffff1660e01b815260040160006040518083038186803b15801561072257600080fd5b505afa158015610736573d6000803e3d6000fd5b505050506040513d6000823e3d601f19601f8201168201806040525081019061075f9190610e2d565b5167ffffffffffffffff811115610779576107786115f1565b5b6040519080825280602002602001820160405280156107a75781602001602082028036833780820191505090505b50905060008673ffffffffffffffffffffffffffffffffffffffff166318160ddd6040518163ffffffff1660e01b815260040160206040518083038186803b1580156107f257600080fd5b505afa158015610806573d6000803e3d6000fd5b505050506040513d601f19601f8201168201806040525081019061082a9190610f79565b11156109315760005b8673ffffffffffffffffffffffffffffffffffffffff1663aa6ca8086040518163ffffffff1660e01b815260040160006040518083038186803b15801561087957600080fd5b505afa15801561088d573d6000803e3d6000fd5b505050506040513d6000823e3d601f19601f820116820180604052508101906108b69190610e2d565b5181101561092f576108fd846108ef888885815181106108d9576108d86115c2565b5b6020026020010151610bef90919063ffffffff16565b610c0590919063ffffffff16565b8282815181106109105761090f6115c2565b5b60200260200101818152505080806109279061151b565b915050610833565b505b80915050949350505050565b7fb1fadd3142ab2ad7f1337ea4d97112bcc8337fc11ce5b20cb04ad038adf9981981565b6000600160009054906101000a900473ffffffffffffffffffffffffffffffffffffffff1673ffffffffffffffffffffffffffffffffffffffff168373ffffffffffffffffffffffffffffffffffffffff1614156109c157819050610bd2565b60008060009054906101000a900473ffffffffffffffffffffffffffffffffffffffff1673ffffffffffffffffffffffffffffffffffffffff1663966da2b8856040518263ffffffff1660e01b8152600401610a1d919061107b565b60206040518083038186803b158015610a3557600080fd5b505afa158015610a49573d6000803e3d6000fd5b505050506040513d601f19601f82011682018060405250810190610a6d9190610f79565b905060008060009054906101000a900473ffffffffffffffffffffffffffffffffffffffff1673ffffffffffffffffffffffffffffffffffffffff1663afa99860868873ffffffffffffffffffffffffffffffffffffffff16637101a33e6040518163ffffffff1660e01b815260040160206040518083038186803b158015610af557600080fd5b505afa158015610b09573d6000803e3d6000fd5b505050506040513d601f19601f82011682018060405250810190610b2d9190610dc0565b6040518363ffffffff1660e01b8152600401610b4a929190611096565b60206040518083038186803b158015610b6257600080fd5b505afa158015610b76573d6000803e3d6000fd5b505050506040513d601f19601f82011682018060405250810190610b9a9190610f79565b9050610bcd82600a610bac9190611308565b610bbf8684610bef90919063ffffffff16565b610c0590919063ffffffff16565b925050505b9392505050565b60008183610be7919061122e565b905092915050565b60008183610bfd9190611426565b905092915050565b60008183610c139190611284565b905092915050565b6000610c2e610c298461118c565b611167565b90508083825260208201905082856020860282011115610c5157610c50611625565b5b60005b85811015610c815781610c678882610d10565b845260208401935060208301925050600181019050610c54565b5050509392505050565b6000610c9e610c99846111b8565b611167565b90508083825260208201905082856020860282011115610cc157610cc0611625565b5b60005b85811015610cf15781610cd78882610d96565b845260208401935060208301925050600181019050610cc4565b5050509392505050565b600081359050610d0a8161167b565b92915050565b600081519050610d1f8161167b565b92915050565b600082601f830112610d3a57610d39611620565b5b8151610d4a848260208601610c1b565b91505092915050565b600082601f830112610d6857610d67611620565b5b8135610d78848260208601610c8b565b91505092915050565b600081359050610d9081611692565b92915050565b600081359050610da5816116a9565b92915050565b600081519050610dba816116a9565b92915050565b600060208284031215610dd657610dd561162f565b5b6000610de484828501610d10565b91505092915050565b60008060408385031215610e0457610e0361162f565b5b6000610e1285828601610cfb565b9250506020610e2385828601610cfb565b9150509250929050565b600060208284031215610e4357610e4261162f565b5b600082015167ffffffffffffffff811115610e6157610e6061162a565b5b610e6d84828501610d25565b91505092915050565b600060208284031215610e8c57610e8b61162f565b5b6000610e9a84828501610d81565b91505092915050565b600080600060608486031215610ebc57610ebb61162f565b5b6000610eca86828701610d81565b9350506020610edb86828701610cfb565b9250506040610eec86828701610d96565b9150509250925092565b60008060008060808587031215610f1057610f0f61162f565b5b6000610f1e87828801610d81565b9450506020610f2f87828801610d96565b935050604085013567ffffffffffffffff811115610f5057610f4f61162a565b5b610f5c87828801610d53565b9250506060610f6d87828801610d96565b91505092959194509250565b600060208284031215610f8f57610f8e61162f565b5b6000610f9d84828501610dab565b91505092915050565b6000610fb2838361105d565b60208301905092915050565b610fc781611480565b82525050565b6000610fd8826111f4565b610fe2818561120c565b9350610fed836111e4565b8060005b8381101561101e5781516110058882610fa6565b9750611010836111ff565b925050600181019050610ff1565b5085935050505092915050565b611034816114a4565b82525050565b6000611047601f8361121d565b915061105282611652565b602082019050919050565b611066816114e0565b82525050565b611075816114e0565b82525050565b60006020820190506110906000830184610fbe565b92915050565b60006040820190506110ab6000830185610fbe565b6110b86020830184610fbe565b9392505050565b600060208201905081810360008301526110d98184610fcd565b905092915050565b600060408201905081810360008301526110fb8185610fcd565b905061110a602083018461106c565b9392505050565b6000602082019050611126600083018461102b565b92915050565b600060208201905081810360008301526111458161103a565b9050919050565b6000602082019050611161600083018461106c565b92915050565b6000611171611182565b905061117d82826114ea565b919050565b6000604051905090565b600067ffffffffffffffff8211156111a7576111a66115f1565b5b602082029050602081019050919050565b600067ffffffffffffffff8211156111d3576111d26115f1565b5b602082029050602081019050919050565b6000819050602082019050919050565b600081519050919050565b6000602082019050919050565b600082825260208201905092915050565b600082825260208201905092915050565b6000611239826114e0565b9150611244836114e0565b9250827fffffffffffffffffffffffffffffffffffffffffffffffffffffffffffffffff0382111561127957611278611564565b5b828201905092915050565b600061128f826114e0565b915061129a836114e0565b9250826112aa576112a9611593565b5b828204905092915050565b6000808291508390505b60018511156112ff578086048111156112db576112da611564565b5b60018516156112ea5780820291505b80810290506112f885611645565b94506112bf565b94509492505050565b6000611313826114e0565b915061131e836114e0565b925061134b7fffffffffffffffffffffffffffffffffffffffffffffffffffffffffffffffff8484611353565b905092915050565b600082611363576001905061141f565b81611371576000905061141f565b81600181146113875760028114611391576113c0565b600191505061141f565b60ff8411156113a3576113a2611564565b5b8360020a9150848211156113ba576113b9611564565b5b5061141f565b5060208310610133831016604e8410600b84101617156113f55782820a9050838111156113f0576113ef611564565b5b61141f565b61140284848460016112b5565b9250905081840481111561141957611418611564565b5b81810290505b9392505050565b6000611431826114e0565b915061143c836114e0565b9250817fffffffffffffffffffffffffffffffffffffffffffffffffffffffffffffffff048311821515161561147557611474611564565b5b828202905092915050565b600061148b826114c0565b9050919050565b600061149d826114c0565b9050919050565b6000819050919050565b60006114b982611492565b9050919050565b600073ffffffffffffffffffffffffffffffffffffffff82169050919050565b6000819050919050565b6114f382611634565b810181811067ffffffffffffffff82111715611512576115116115f1565b5b80604052505050565b6000611526826114e0565b91507fffffffffffffffffffffffffffffffffffffffffffffffffffffffffffffffff82141561155957611558611564565b5b600182019050919050565b7f4e487b7100000000000000000000000000000000000000000000000000000000600052601160045260246000fd5b7f4e487b7100000000000000000000000000000000000000000000000000000000600052601260045260246000fd5b7f4e487b7100000000000000000000000000000000000000000000000000000000600052603260045260246000fd5b7f4e487b7100000000000000000000000000000000000000000000000000000000600052604160045260246000fd5b600080fd5b600080fd5b600080fd5b600080fd5b6000601f19601f8301169050919050565b60008160011c9050919050565b7f73756d207072696365206973206e6f742067726561746572207468616e203000600082015250565b61168481611480565b811461168f57600080fd5b50565b61169b816114ae565b81146116a657600080fd5b50565b6116b2816114e0565b81146116bd57600080fd5b5056fea2646970667358221220fbd2e262a4ac40c3fa20a5b0a187b4f59c0b891294d6ecaa56dbce63ac18d03064736f6c63430008060033",
  "devdoc": {
    "kind": "dev",
    "methods": {
      "_getTokenAmountInBNB(address,address,uint256)": {
        "params": {
          "amount": "The amount to convert to BNB",
          "t": "The base token being converted to BNNB"
        },
        "returns": {
          "amountInBNB": "The converted BNB amount"
        }
      },
      "calculateSwapAmounts(address,uint256,uint256[],uint256)": {
        "details": "The amount for each token has to be calculated to ensure the ratio (weight in the portfolio) stays constant",
        "params": {
          "tokenAmount": "The amount a user invests into the portfolio",
          "tokenBalanceInBNB": "The balanace of each token in the portfolio converted to BNB",
          "vaultBalance": "The total vault value of all tokens converted to BNB"
        },
        "returns": {
          "_0": "A list of amounts that are being swapped into the portfolio tokens"
        }
      },
      "getTokenAndVaultBalance(address)": {
        "returns": {
          "tokenXBalance": "A list of the value of each token in the portfolio in BNB",
          "vaultValue": "The total vault value in BNB"
        }
      }
    },
    "version": 1
  },
  "userdoc": {
    "kind": "user",
    "methods": {
      "_getTokenAmountInBNB(address,address,uint256)": {
        "notice": "The function converts the given token amount into BNB"
      },
      "calculateSwapAmounts(address,uint256,uint256[],uint256)": {
        "notice": "The function calculates the amount in BNB to swap from BNB to each token"
      },
      "getTokenAndVaultBalance(address)": {
        "notice": "The function calculates the balance of each token in the vault and converts them to BNB and  the sum of those values which represents the total vault value in BNB"
      }
    },
    "version": 1
  },
  "storageLayout": {
    "storage": [
      {
        "astId": 4993,
        "contract": "contracts/core/IndexSwapLibrary.sol:IndexSwapLibrary",
        "label": "oracle",
        "offset": 0,
        "slot": "0",
        "type": "t_contract(IPriceOracle)5282"
      },
      {
        "astId": 4995,
        "contract": "contracts/core/IndexSwapLibrary.sol:IndexSwapLibrary",
        "label": "wETH",
        "offset": 0,
        "slot": "1",
        "type": "t_address"
      }
    ],
    "types": {
      "t_address": {
        "encoding": "inplace",
        "label": "address",
        "numberOfBytes": "20"
      },
      "t_contract(IPriceOracle)5282": {
        "encoding": "inplace",
        "label": "contract IPriceOracle",
        "numberOfBytes": "20"
      }
    }
  }
}