{
  "address": "0xFC563a1EcE148AA86758243418F0165582B2d51c",
  "abi": [
    {
      "inputs": [
        {
          "internalType": "address",
          "name": "_owner",
          "type": "address"
        }
      ],
      "stateMutability": "nonpayable",
      "type": "constructor"
    },
    {
      "inputs": [
        {
          "internalType": "address",
          "name": "guard_",
          "type": "address"
        }
      ],
      "name": "NotIERC165Compliant",
      "type": "error"
    },
    {
      "anonymous": false,
      "inputs": [
        {
          "indexed": true,
          "internalType": "address",
          "name": "previousAvatar",
          "type": "address"
        },
        {
          "indexed": true,
          "internalType": "address",
          "name": "newAvatar",
          "type": "address"
        }
      ],
      "name": "AvatarSet",
      "type": "event"
    },
    {
      "anonymous": false,
      "inputs": [
        {
          "indexed": false,
          "internalType": "address",
          "name": "guard",
          "type": "address"
        }
      ],
      "name": "ChangedGuard",
      "type": "event"
    },
    {
      "anonymous": false,
      "inputs": [
        {
          "indexed": false,
          "internalType": "uint8",
          "name": "version",
          "type": "uint8"
        }
      ],
      "name": "Initialized",
      "type": "event"
    },
    {
      "anonymous": false,
      "inputs": [
        {
          "indexed": true,
          "internalType": "address",
          "name": "previousOwner",
          "type": "address"
        },
        {
          "indexed": true,
          "internalType": "address",
          "name": "newOwner",
          "type": "address"
        }
      ],
      "name": "OwnershipTransferred",
      "type": "event"
    },
    {
      "anonymous": false,
      "inputs": [
        {
          "indexed": true,
          "internalType": "address",
          "name": "previousTarget",
          "type": "address"
        },
        {
          "indexed": true,
          "internalType": "address",
          "name": "newTarget",
          "type": "address"
        }
      ],
      "name": "TargetSet",
      "type": "event"
    },
    {
      "inputs": [
        {
          "internalType": "address",
          "name": "newOwner",
          "type": "address"
        }
      ],
      "name": "addOwner",
      "outputs": [],
      "stateMutability": "nonpayable",
      "type": "function"
    },
    {
      "inputs": [],
      "name": "avatar",
      "outputs": [
        {
          "internalType": "address",
          "name": "",
          "type": "address"
        }
      ],
      "stateMutability": "view",
      "type": "function"
    },
    {
      "inputs": [
        {
          "internalType": "address",
          "name": "_to",
          "type": "address"
        },
        {
          "internalType": "uint256",
          "name": "value",
          "type": "uint256"
        }
      ],
      "name": "executeTransactionETH",
      "outputs": [
        {
          "internalType": "bool",
          "name": "success",
          "type": "bool"
        }
      ],
      "stateMutability": "nonpayable",
      "type": "function"
    },
    {
      "inputs": [
        {
          "internalType": "address",
          "name": "_to",
          "type": "address"
        },
        {
          "internalType": "uint256",
          "name": "value",
          "type": "uint256"
        },
        {
          "internalType": "address",
          "name": "_token",
          "type": "address"
        }
      ],
      "name": "executeTransactionOther",
      "outputs": [
        {
          "internalType": "bool",
          "name": "success",
          "type": "bool"
        }
      ],
      "stateMutability": "nonpayable",
      "type": "function"
    },
    {
      "inputs": [],
      "name": "getGuard",
      "outputs": [
        {
          "internalType": "address",
          "name": "_guard",
          "type": "address"
        }
      ],
      "stateMutability": "view",
      "type": "function"
    },
    {
      "inputs": [],
      "name": "guard",
      "outputs": [
        {
          "internalType": "address",
          "name": "",
          "type": "address"
        }
      ],
      "stateMutability": "view",
      "type": "function"
    },
    {
      "inputs": [],
      "name": "moduleOwner",
      "outputs": [
        {
          "internalType": "address",
          "name": "",
          "type": "address"
        }
      ],
      "stateMutability": "view",
      "type": "function"
    },
    {
      "inputs": [],
      "name": "owner",
      "outputs": [
        {
          "internalType": "address",
          "name": "",
          "type": "address"
        }
      ],
      "stateMutability": "view",
      "type": "function"
    },
    {
      "inputs": [
        {
          "internalType": "address",
          "name": "",
          "type": "address"
        }
      ],
      "name": "owners",
      "outputs": [
        {
          "internalType": "bool",
          "name": "",
          "type": "bool"
        }
      ],
      "stateMutability": "view",
      "type": "function"
    },
    {
      "inputs": [],
      "name": "renounceOwnership",
      "outputs": [],
      "stateMutability": "nonpayable",
      "type": "function"
    },
    {
      "inputs": [
        {
          "internalType": "address",
          "name": "_avatar",
          "type": "address"
        }
      ],
      "name": "setAvatar",
      "outputs": [],
      "stateMutability": "nonpayable",
      "type": "function"
    },
    {
      "inputs": [
        {
          "internalType": "address",
          "name": "_guard",
          "type": "address"
        }
      ],
      "name": "setGuard",
      "outputs": [],
      "stateMutability": "nonpayable",
      "type": "function"
    },
    {
      "inputs": [
        {
          "internalType": "address",
          "name": "_target",
          "type": "address"
        }
      ],
      "name": "setTarget",
      "outputs": [],
      "stateMutability": "nonpayable",
      "type": "function"
    },
    {
      "inputs": [
        {
          "internalType": "bytes",
          "name": "initializeParams",
          "type": "bytes"
        }
      ],
      "name": "setUp",
      "outputs": [],
      "stateMutability": "nonpayable",
      "type": "function"
    },
    {
      "inputs": [],
      "name": "target",
      "outputs": [
        {
          "internalType": "address",
          "name": "",
          "type": "address"
        }
      ],
      "stateMutability": "view",
      "type": "function"
    },
    {
      "inputs": [
        {
          "internalType": "address",
          "name": "newOwner",
          "type": "address"
        }
      ],
      "name": "transferOwnership",
      "outputs": [],
      "stateMutability": "nonpayable",
      "type": "function"
    }
  ],
  "transactionHash": "0xb2417eb4bd75e2e59866722fe2fe9352170d89f9642a72464726705a7cbfde2b",
  "args": [
    "0x89E2539ADBf0c366f2f076f1B53b06F61266c10E"
  ],
  "numDeployments": 1,
  "solcInputHash": "77d8a7f926aaf644c8ba61d719f8b8d7",
  "bytecode": "0x60806040523480156200001157600080fd5b50604051620026533803806200265383398181016040528101906200003791906200076f565b6000816040516020016200004c919062000891565b60405160208183030381529060405290506200006e81620000ce60201b60201c565b6001606960003373ffffffffffffffffffffffffffffffffffffffff1673ffffffffffffffffffffffffffffffffffffffff16815260200190815260200160002060006101000a81548160ff021916908315150217905550505062000b1c565b60008060019054906101000a900460ff16159050808015620001005750600160008054906101000a900460ff1660ff16105b806200013c57506200011d306200027a60201b62000c391760201c565b1580156200013b5750600160008054906101000a900460ff1660ff16145b5b6200017e576040517f08c379a00000000000000000000000000000000000000000000000000000000081526004016200017590620008ed565b60405180910390fd5b60016000806101000a81548160ff021916908360ff1602179055508015620001bc576001600060016101000a81548160ff0219169083151502179055505b620001cc6200029d60201b60201c565b600082806020019051810190620001e49190620007a1565b9050620001f7816200030160201b60201c565b6200020881620003d760201b60201c565b6200021981620004ad60201b60201c565b508015620002765760008060016101000a81548160ff0219169083151502179055507f7f26b83ff96e1f2b6a682f133852f6798a09c465da95921460cefb384740249860016040516200026d9190620008ae565b60405180910390a15b5050565b6000808273ffffffffffffffffffffffffffffffffffffffff163b119050919050565b600060019054906101000a900460ff16620002ef576040517f08c379a0000000000000000000000000000000000000000000000000000000008152600401620002e69062000931565b60405180910390fd5b620002ff6200054460201b60201c565b565b62000311620005b860201b60201c565b6000606660009054906101000a900473ffffffffffffffffffffffffffffffffffffffff16905081606660006101000a81548173ffffffffffffffffffffffffffffffffffffffff021916908373ffffffffffffffffffffffffffffffffffffffff1602179055508173ffffffffffffffffffffffffffffffffffffffff168173ffffffffffffffffffffffffffffffffffffffff167f52ae88b092de36f87fb43fe794eb1381023b9c1bce563a871154022c63dce34260405160405180910390a35050565b620003e7620005b860201b60201c565b6000606760009054906101000a900473ffffffffffffffffffffffffffffffffffffffff16905081606760006101000a81548173ffffffffffffffffffffffffffffffffffffffff021916908373ffffffffffffffffffffffffffffffffffffffff1602179055508173ffffffffffffffffffffffffffffffffffffffff168173ffffffffffffffffffffffffffffffffffffffff167f90cc2f570a6eb594b1580ea3e41247d2d73a55281889e86bd4ec2fc29c7e62d660405160405180910390a35050565b620004bd620005b860201b60201c565b600073ffffffffffffffffffffffffffffffffffffffff168173ffffffffffffffffffffffffffffffffffffffff16141562000530576040517f08c379a00000000000000000000000000000000000000000000000000000000081526004016200052790620008cb565b60405180910390fd5b62000541816200064960201b60201c565b50565b600060019054906101000a900460ff1662000596576040517f08c379a00000000000000000000000000000000000000000000000000000000081526004016200058d9062000931565b60405180910390fd5b620005b6620005aa6200070f60201b60201c565b6200064960201b60201c565b565b620005c86200070f60201b60201c565b73ffffffffffffffffffffffffffffffffffffffff16620005ee6200071760201b60201c565b73ffffffffffffffffffffffffffffffffffffffff161462000647576040517f08c379a00000000000000000000000000000000000000000000000000000000081526004016200063e906200090f565b60405180910390fd5b565b6000603360009054906101000a900473ffffffffffffffffffffffffffffffffffffffff16905081603360006101000a81548173ffffffffffffffffffffffffffffffffffffffff021916908373ffffffffffffffffffffffffffffffffffffffff1602179055508173ffffffffffffffffffffffffffffffffffffffff168173ffffffffffffffffffffffffffffffffffffffff167f8be0079c531659141344cd1fd0a4f28419497f9722a3daafe3b4186f6b6457e060405160405180910390a35050565b600033905090565b6000603360009054906101000a900473ffffffffffffffffffffffffffffffffffffffff16905090565b600081519050620007528162000ae8565b92915050565b600081519050620007698162000b02565b92915050565b600060208284031215620007885762000787620009cd565b5b6000620007988482850162000741565b91505092915050565b600060208284031215620007ba57620007b9620009cd565b5b6000620007ca8482850162000758565b91505092915050565b620007de8162000964565b82525050565b620007ef81620009b9565b82525050565b60006200080460268362000953565b91506200081182620009d2565b604082019050919050565b60006200082b602e8362000953565b9150620008388262000a21565b604082019050919050565b60006200085260208362000953565b91506200085f8262000a70565b602082019050919050565b600062000879602b8362000953565b9150620008868262000a99565b604082019050919050565b6000602082019050620008a86000830184620007d3565b92915050565b6000602082019050620008c56000830184620007e4565b92915050565b60006020820190508181036000830152620008e681620007f5565b9050919050565b6000602082019050818103600083015262000908816200081c565b9050919050565b600060208201905081810360008301526200092a8162000843565b9050919050565b600060208201905081810360008301526200094c816200086a565b9050919050565b600082825260208201905092915050565b600062000971826200098c565b9050919050565b600062000985826200098c565b9050919050565b600073ffffffffffffffffffffffffffffffffffffffff82169050919050565b600060ff82169050919050565b6000620009c682620009ac565b9050919050565b600080fd5b7f4f776e61626c653a206e6577206f776e657220697320746865207a65726f206160008201527f6464726573730000000000000000000000000000000000000000000000000000602082015250565b7f496e697469616c697a61626c653a20636f6e747261637420697320616c72656160008201527f647920696e697469616c697a6564000000000000000000000000000000000000602082015250565b7f4f776e61626c653a2063616c6c6572206973206e6f7420746865206f776e6572600082015250565b7f496e697469616c697a61626c653a20636f6e7472616374206973206e6f74206960008201527f6e697469616c697a696e67000000000000000000000000000000000000000000602082015250565b62000af38162000964565b811462000aff57600080fd5b50565b62000b0d8162000978565b811462000b1957600080fd5b50565b611b278062000b2c6000396000f3fe608060405234801561001057600080fd5b50600436106101005760003560e01c8063776d1a0111610097578063c910638911610066578063c910638914610287578063d4b83992146102a5578063e19a9dd9146102c3578063f2fde38b146102df57610100565b8063776d1a01146102135780637ceab3b11461022f5780638da5cb5b1461024d578063a4f9edbf1461026b57610100565b80635aef7de6116100d35780635aef7de61461019f5780637065cb48146101bd578063715018a6146101d9578063742d47d8146101e357610100565b8063022914a71461010557806302a3aede14610135578063086cfca814610165578063452c04b114610181575b600080fd5b61011f600480360381019061011a919061121a565b6102fb565b60405161012c9190611612565b60405180910390f35b61014f600480360381019061014a91906112b4565b61031b565b60405161015c9190611612565b60405180910390f35b61017f600480360381019061017a919061121a565b610407565b005b6101896104d5565b60405161019691906114c9565b60405180910390f35b6101a76104fb565b6040516101b491906114c9565b60405180910390f35b6101d760048036038101906101d2919061121a565b610521565b005b6101e1610642565b005b6101fd60048036038101906101f89190611274565b610656565b60405161020a9190611612565b60405180910390f35b61022d6004803603810190610228919061121a565b610710565b005b6102376107de565b60405161024491906114c9565b60405180910390f35b610255610804565b60405161026291906114c9565b60405180910390f35b61028560048036038101906102809190611334565b61082e565b005b61028f6109a1565b60405161029c91906114c9565b60405180910390f35b6102ad6109cb565b6040516102ba91906114c9565b60405180910390f35b6102dd60048036038101906102d8919061121a565b6109f1565b005b6102f960048036038101906102f4919061121a565b610bb5565b005b60696020528060005260406000206000915054906101000a900460ff1681565b6000606960003373ffffffffffffffffffffffffffffffffffffffff1673ffffffffffffffffffffffffffffffffffffffff16815260200190815260200160002060009054906101000a900460ff1661037357600080fd5b600063a9059cbb60e01b85856040516024016103909291906114e4565b604051602081830303815290604052907bffffffffffffffffffffffffffffffffffffffffffffffffffffffff19166020820180517bffffffffffffffffffffffffffffffffffffffffffffffffffffffff838183161783525050505090506103fd836000836000610c5c565b9150509392505050565b61040f610f50565b6000606660009054906101000a900473ffffffffffffffffffffffffffffffffffffffff16905081606660006101000a81548173ffffffffffffffffffffffffffffffffffffffff021916908373ffffffffffffffffffffffffffffffffffffffff1602179055508173ffffffffffffffffffffffffffffffffffffffff168173ffffffffffffffffffffffffffffffffffffffff167f52ae88b092de36f87fb43fe794eb1381023b9c1bce563a871154022c63dce34260405160405180910390a35050565b606860009054906101000a900473ffffffffffffffffffffffffffffffffffffffff1681565b606660009054906101000a900473ffffffffffffffffffffffffffffffffffffffff1681565b606960003373ffffffffffffffffffffffffffffffffffffffff1673ffffffffffffffffffffffffffffffffffffffff16815260200190815260200160002060009054906101000a900460ff1661057757600080fd5b600073ffffffffffffffffffffffffffffffffffffffff168173ffffffffffffffffffffffffffffffffffffffff1614156105e7576040517f08c379a00000000000000000000000000000000000000000000000000000000081526004016105de9061168c565b60405180910390fd5b6001606960008373ffffffffffffffffffffffffffffffffffffffff1673ffffffffffffffffffffffffffffffffffffffff16815260200190815260200160002060006101000a81548160ff02191690831515021790555050565b61064a610f50565b6106546000610fce565b565b6000606960003373ffffffffffffffffffffffffffffffffffffffff1673ffffffffffffffffffffffffffffffffffffffff16815260200190815260200160002060009054906101000a900460ff166106ae57600080fd5b6107088383600067ffffffffffffffff8111156106ce576106cd611917565b5b6040519080825280601f01601f1916602001820160405280156107005781602001600182028036833780820191505090505b506000610c5c565b905092915050565b610718610f50565b6000606760009054906101000a900473ffffffffffffffffffffffffffffffffffffffff16905081606760006101000a81548173ffffffffffffffffffffffffffffffffffffffff021916908373ffffffffffffffffffffffffffffffffffffffff1602179055508173ffffffffffffffffffffffffffffffffffffffff168173ffffffffffffffffffffffffffffffffffffffff167f90cc2f570a6eb594b1580ea3e41247d2d73a55281889e86bd4ec2fc29c7e62d660405160405180910390a35050565b606560009054906101000a900473ffffffffffffffffffffffffffffffffffffffff1681565b6000603360009054906101000a900473ffffffffffffffffffffffffffffffffffffffff16905090565b60008060019054906101000a900460ff1615905080801561085f5750600160008054906101000a900460ff1660ff16105b8061088c575061086e30610c39565b15801561088b5750600160008054906101000a900460ff1660ff16145b5b6108cb576040517f08c379a00000000000000000000000000000000000000000000000000000000081526004016108c2906116ac565b60405180910390fd5b60016000806101000a81548160ff021916908360ff1602179055508015610908576001600060016101000a81548160ff0219169083151502179055505b610910611094565b6000828060200190518101906109269190611247565b905061093181610407565b61093a81610710565b61094381610bb5565b50801561099d5760008060016101000a81548160ff0219169083151502179055507f7f26b83ff96e1f2b6a682f133852f6798a09c465da95921460cefb384740249860016040516109949190611671565b60405180910390a15b5050565b6000606560009054906101000a900473ffffffffffffffffffffffffffffffffffffffff16905090565b606760009054906101000a900473ffffffffffffffffffffffffffffffffffffffff1681565b6109f9610f50565b600073ffffffffffffffffffffffffffffffffffffffff168173ffffffffffffffffffffffffffffffffffffffff1614610b18578073ffffffffffffffffffffffffffffffffffffffff166301ffc9a77fe6d7a83a000000000000000000000000000000000000000000000000000000006040518263ffffffff1660e01b8152600401610a869190611656565b60206040518083038186803b158015610a9e57600080fd5b505afa158015610ab2573d6000803e3d6000fd5b505050506040513d601f19601f82011682018060405250810190610ad69190611307565b610b1757806040517fb16ea67e000000000000000000000000000000000000000000000000000000008152600401610b0e91906114c9565b60405180910390fd5b5b80606560006101000a81548173ffffffffffffffffffffffffffffffffffffffff021916908373ffffffffffffffffffffffffffffffffffffffff1602179055507f1151116914515bc0891ff9047a6cb32cf902546f83066499bcf8ba33d2353fa2606560009054906101000a900473ffffffffffffffffffffffffffffffffffffffff16604051610baa91906114c9565b60405180910390a150565b610bbd610f50565b600073ffffffffffffffffffffffffffffffffffffffff168173ffffffffffffffffffffffffffffffffffffffff161415610c2d576040517f08c379a0000000000000000000000000000000000000000000000000000000008152600401610c249061168c565b60405180910390fd5b610c3681610fce565b50565b6000808273ffffffffffffffffffffffffffffffffffffffff163b119050919050565b60008073ffffffffffffffffffffffffffffffffffffffff16606560009054906101000a900473ffffffffffffffffffffffffffffffffffffffff1673ffffffffffffffffffffffffffffffffffffffff1614610d8d57606560009054906101000a900473ffffffffffffffffffffffffffffffffffffffff1673ffffffffffffffffffffffffffffffffffffffff166375f0bb528686868660008060008060006040518060400160405280600281526020017f3078000000000000000000000000000000000000000000000000000000000000815250336040518c63ffffffff1660e01b8152600401610d5a9b9a99989796959493929190611559565b600060405180830381600087803b158015610d7457600080fd5b505af1158015610d88573d6000803e3d6000fd5b505050505b606760009054906101000a900473ffffffffffffffffffffffffffffffffffffffff1673ffffffffffffffffffffffffffffffffffffffff1663468721a7868686866040518563ffffffff1660e01b8152600401610dee949392919061150d565b602060405180830381600087803b158015610e0857600080fd5b505af1158015610e1c573d6000803e3d6000fd5b505050506040513d601f19601f82011682018060405250810190610e409190611307565b9050600073ffffffffffffffffffffffffffffffffffffffff16606560009054906101000a900473ffffffffffffffffffffffffffffffffffffffff1673ffffffffffffffffffffffffffffffffffffffff1614610f4857606560009054906101000a900473ffffffffffffffffffffffffffffffffffffffff1673ffffffffffffffffffffffffffffffffffffffff1663932713687f3078000000000000000000000000000000000000000000000000000000000000836040518363ffffffff1660e01b8152600401610f1592919061162d565b600060405180830381600087803b158015610f2f57600080fd5b505af1158015610f43573d6000803e3d6000fd5b505050505b949350505050565b610f586110ed565b73ffffffffffffffffffffffffffffffffffffffff16610f76610804565b73ffffffffffffffffffffffffffffffffffffffff1614610fcc576040517f08c379a0000000000000000000000000000000000000000000000000000000008152600401610fc3906116cc565b60405180910390fd5b565b6000603360009054906101000a900473ffffffffffffffffffffffffffffffffffffffff16905081603360006101000a81548173ffffffffffffffffffffffffffffffffffffffff021916908373ffffffffffffffffffffffffffffffffffffffff1602179055508173ffffffffffffffffffffffffffffffffffffffff168173ffffffffffffffffffffffffffffffffffffffff167f8be0079c531659141344cd1fd0a4f28419497f9722a3daafe3b4186f6b6457e060405160405180910390a35050565b600060019054906101000a900460ff166110e3576040517f08c379a00000000000000000000000000000000000000000000000000000000081526004016110da906116ec565b60405180910390fd5b6110eb6110f5565b565b600033905090565b600060019054906101000a900460ff16611144576040517f08c379a000000000000000000000000000000000000000000000000000000000815260040161113b906116ec565b60405180910390fd5b61115461114f6110ed565b610fce565b565b600061116961116484611731565b61170c565b9050828152602081018484840111156111855761118461194b565b5b611190848285611875565b509392505050565b6000813590506111a781611a95565b92915050565b6000815190506111bc81611aac565b92915050565b6000815190506111d181611ac3565b92915050565b600082601f8301126111ec576111eb611946565b5b81356111fc848260208601611156565b91505092915050565b60008135905061121481611ada565b92915050565b6000602082840312156112305761122f611955565b5b600061123e84828501611198565b91505092915050565b60006020828403121561125d5761125c611955565b5b600061126b848285016111ad565b91505092915050565b6000806040838503121561128b5761128a611955565b5b600061129985828601611198565b92505060206112aa85828601611205565b9150509250929050565b6000806000606084860312156112cd576112cc611955565b5b60006112db86828701611198565b93505060206112ec86828701611205565b92505060406112fd86828701611198565b9150509250925092565b60006020828403121561131d5761131c611955565b5b600061132b848285016111c2565b91505092915050565b60006020828403121561134a57611349611955565b5b600082013567ffffffffffffffff81111561136857611367611950565b5b611374848285016111d7565b91505092915050565b611386816117a1565b82525050565b6113958161178f565b82525050565b6113a4816117b3565b82525050565b6113b3816117bf565b82525050565b6113c2816117c9565b82525050565b60006113d382611762565b6113dd818561176d565b93506113ed818560208601611884565b6113f68161195a565b840191505092915050565b61140a8161183f565b82525050565b61141981611851565b82525050565b61142881611863565b82525050565b600061143b60268361177e565b91506114468261196b565b604082019050919050565b600061145e602e8361177e565b9150611469826119ba565b604082019050919050565b600061148160208361177e565b915061148c82611a09565b602082019050919050565b60006114a4602b8361177e565b91506114af82611a32565b604082019050919050565b6114c381611828565b82525050565b60006020820190506114de600083018461138c565b92915050565b60006040820190506114f9600083018561138c565b61150660208301846114ba565b9392505050565b6000608082019050611522600083018761138c565b61152f60208301866114ba565b818103604083015261154181856113c8565b90506115506060830184611401565b95945050505050565b60006101608201905061156f600083018e61138c565b61157c602083018d6114ba565b818103604083015261158e818c6113c8565b905061159d606083018b611401565b6115aa608083018a611410565b6115b760a0830189611410565b6115c460c0830188611410565b6115d160e083018761138c565b6115df61010083018661137d565b8181036101208301526115f281856113c8565b905061160261014083018461138c565b9c9b505050505050505050505050565b6000602082019050611627600083018461139b565b92915050565b600060408201905061164260008301856113aa565b61164f602083018461139b565b9392505050565b600060208201905061166b60008301846113b9565b92915050565b6000602082019050611686600083018461141f565b92915050565b600060208201905081810360008301526116a58161142e565b9050919050565b600060208201905081810360008301526116c581611451565b9050919050565b600060208201905081810360008301526116e581611474565b9050919050565b6000602082019050818103600083015261170581611497565b9050919050565b6000611716611727565b905061172282826118b7565b919050565b6000604051905090565b600067ffffffffffffffff82111561174c5761174b611917565b5b6117558261195a565b9050602081019050919050565b600081519050919050565b600082825260208201905092915050565b600082825260208201905092915050565b600061179a82611808565b9050919050565b60006117ac82611808565b9050919050565b60008115159050919050565b6000819050919050565b60007fffffffff0000000000000000000000000000000000000000000000000000000082169050919050565b600081905061180382611a81565b919050565b600073ffffffffffffffffffffffffffffffffffffffff82169050919050565b6000819050919050565b600060ff82169050919050565b600061184a826117f5565b9050919050565b600061185c82611828565b9050919050565b600061186e82611832565b9050919050565b82818337600083830152505050565b60005b838110156118a2578082015181840152602081019050611887565b838111156118b1576000848401525b50505050565b6118c08261195a565b810181811067ffffffffffffffff821117156118df576118de611917565b5b80604052505050565b7f4e487b7100000000000000000000000000000000000000000000000000000000600052602160045260246000fd5b7f4e487b7100000000000000000000000000000000000000000000000000000000600052604160045260246000fd5b600080fd5b600080fd5b600080fd5b600080fd5b6000601f19601f8301169050919050565b7f4f776e61626c653a206e6577206f776e657220697320746865207a65726f206160008201527f6464726573730000000000000000000000000000000000000000000000000000602082015250565b7f496e697469616c697a61626c653a20636f6e747261637420697320616c72656160008201527f647920696e697469616c697a6564000000000000000000000000000000000000602082015250565b7f4f776e61626c653a2063616c6c6572206973206e6f7420746865206f776e6572600082015250565b7f496e697469616c697a61626c653a20636f6e7472616374206973206e6f74206960008201527f6e697469616c697a696e67000000000000000000000000000000000000000000602082015250565b60028110611a9257611a916118e8565b5b50565b611a9e8161178f565b8114611aa957600080fd5b50565b611ab5816117a1565b8114611ac057600080fd5b50565b611acc816117b3565b8114611ad757600080fd5b50565b611ae381611828565b8114611aee57600080fd5b5056fea2646970667358221220e5347b6ad39523607a617bb6ae061f969272ddee9f78d7fe88ee5ecdb83734a664736f6c63430008060033",
  "devdoc": {
    "kind": "dev",
    "methods": {
      "owner()": {
        "details": "Returns the address of the current owner."
      },
      "renounceOwnership()": {
        "details": "Leaves the contract without owner. It will not be possible to call `onlyOwner` functions anymore. Can only be called by the current owner. NOTE: Renouncing ownership will leave the contract without an owner, thereby removing any functionality that is only available to the owner."
      },
      "setAvatar(address)": {
        "details": "Sets the avatar to a new avatar (`newAvatar`)."
      },
      "setGuard(address)": {
        "details": "Set a guard that checks transactions before execution.",
        "params": {
          "_guard": "The address of the guard to be used or the 0 address to disable the guard."
        }
      },
      "setTarget(address)": {
        "details": "Sets the target to a new target (`newTarget`)."
      },
      "setUp(bytes)": {
        "details": "Initialize function, will be triggered when a new proxy is deployed",
        "params": {
          "initializeParams": "Parameters of initialization encoded"
        }
      },
      "transferOwnership(address)": {
        "details": "Transfers ownership of the contract to a new account (`newOwner`). Can only be called by the current owner."
      }
    },
    "version": 1
  },
  "userdoc": {
    "errors": {
      "NotIERC165Compliant(address)": [
        {
          "notice": "`guard_` does not implement IERC165."
        }
      ]
    },
    "kind": "user",
    "methods": {
      "setAvatar(address)": {
        "notice": "Can only be called by the current owner."
      },
      "setTarget(address)": {
        "notice": "Can only be called by the current owner."
      }
    },
    "version": 1
  },
  "storageLayout": {
    "storage": [
      {
        "astId": 1074,
        "contract": "contracts/vault/MyModule.sol:MyModule",
        "label": "_initialized",
        "offset": 0,
        "slot": "0",
        "type": "t_uint8"
      },
      {
        "astId": 1077,
        "contract": "contracts/vault/MyModule.sol:MyModule",
        "label": "_initializing",
        "offset": 1,
        "slot": "0",
        "type": "t_bool"
      },
      {
        "astId": 2339,
        "contract": "contracts/vault/MyModule.sol:MyModule",
        "label": "__gap",
        "offset": 0,
        "slot": "1",
        "type": "t_array(t_uint256)50_storage"
      },
      {
        "astId": 946,
        "contract": "contracts/vault/MyModule.sol:MyModule",
        "label": "_owner",
        "offset": 0,
        "slot": "51",
        "type": "t_address"
      },
      {
        "astId": 1066,
        "contract": "contracts/vault/MyModule.sol:MyModule",
        "label": "__gap",
        "offset": 0,
        "slot": "52",
        "type": "t_array(t_uint256)49_storage"
      },
      {
        "astId": 340,
        "contract": "contracts/vault/MyModule.sol:MyModule",
        "label": "guard",
        "offset": 0,
        "slot": "101",
        "type": "t_address"
      },
      {
        "astId": 18,
        "contract": "contracts/vault/MyModule.sol:MyModule",
        "label": "avatar",
        "offset": 0,
        "slot": "102",
        "type": "t_address"
      },
      {
        "astId": 21,
        "contract": "contracts/vault/MyModule.sol:MyModule",
        "label": "target",
        "offset": 0,
        "slot": "103",
        "type": "t_address"
      },
      {
        "astId": 6314,
        "contract": "contracts/vault/MyModule.sol:MyModule",
        "label": "moduleOwner",
        "offset": 0,
        "slot": "104",
        "type": "t_address"
      },
      {
        "astId": 6318,
        "contract": "contracts/vault/MyModule.sol:MyModule",
        "label": "owners",
        "offset": 0,
        "slot": "105",
        "type": "t_mapping(t_address,t_bool)"
      }
    ],
    "types": {
      "t_address": {
        "encoding": "inplace",
        "label": "address",
        "numberOfBytes": "20"
      },
      "t_array(t_uint256)49_storage": {
        "base": "t_uint256",
        "encoding": "inplace",
        "label": "uint256[49]",
        "numberOfBytes": "1568"
      },
      "t_array(t_uint256)50_storage": {
        "base": "t_uint256",
        "encoding": "inplace",
        "label": "uint256[50]",
        "numberOfBytes": "1600"
      },
      "t_bool": {
        "encoding": "inplace",
        "label": "bool",
        "numberOfBytes": "1"
      },
      "t_mapping(t_address,t_bool)": {
        "encoding": "mapping",
        "key": "t_address",
        "label": "mapping(address => bool)",
        "numberOfBytes": "32",
        "value": "t_bool"
      },
      "t_uint256": {
        "encoding": "inplace",
        "label": "uint256",
        "numberOfBytes": "32"
      },
      "t_uint8": {
        "encoding": "inplace",
        "label": "uint8",
        "numberOfBytes": "1"
      }
    }
  }
}