{
  "address": "0x43a6550B66C4Fc9C8256b43727617a4FfCc5EF7B",
  "abi": [
    {
      "inputs": [
        {
          "internalType": "address",
          "name": "tokenAddress",
          "type": "address"
        }
      ],
      "name": "getDecimal",
      "outputs": [
        {
          "internalType": "uint256",
          "name": "",
          "type": "uint256"
        }
      ],
      "stateMutability": "view",
      "type": "function"
    },
    {
      "inputs": [
        {
          "internalType": "address",
          "name": "_assetOne",
          "type": "address"
        },
        {
          "internalType": "address",
          "name": "_assetTwo",
          "type": "address"
        }
      ],
      "name": "getPairAddress",
      "outputs": [
        {
          "internalType": "address",
          "name": "",
          "type": "address"
        }
      ],
      "stateMutability": "view",
      "type": "function"
    },
    {
      "inputs": [
        {
          "internalType": "address",
          "name": "token_address",
          "type": "address"
        },
        {
          "internalType": "address",
          "name": "token1_address",
          "type": "address"
        }
      ],
      "name": "getTokenPrice",
      "outputs": [
        {
          "internalType": "uint256",
          "name": "price",
          "type": "uint256"
        }
      ],
      "stateMutability": "view",
      "type": "function"
    },
    {
      "inputs": [
        {
          "internalType": "address",
          "name": "_uniSwapRouter",
          "type": "address"
        }
      ],
      "name": "initialize",
      "outputs": [],
      "stateMutability": "nonpayable",
      "type": "function"
    },
    {
      "inputs": [],
      "name": "uniswapV2Router",
      "outputs": [
        {
          "internalType": "contract IUniswapV2Router02",
          "name": "",
          "type": "address"
        }
      ],
      "stateMutability": "view",
      "type": "function"
    }
  ],
  "transactionHash": "0x9ddc8b53c36bc0a032f0daad2dda48ddbdc6ccef74a627abbd0d636499134676",
  "args": [],
  "numDeployments": 1,
  "solcInputHash": "77d8a7f926aaf644c8ba61d719f8b8d7",
  "bytecode": "0x608060405234801561001057600080fd5b50610e40806100206000396000f3fe608060405234801561001057600080fd5b50600436106100575760003560e01c80631694505e1461005c578063966da2b81461007a578063afa99860146100aa578063b4f69a2f146100da578063c4d66de81461010a575b600080fd5b610064610126565b60405161007191906109be565b60405180910390f35b610094600480360381019061008f91906107c0565b61014a565b6040516100a19190610a19565b60405180910390f35b6100c460048036038101906100bf919061081a565b6101d4565b6040516100d19190610a19565b60405180910390f35b6100f460048036038101906100ef919061081a565b61037e565b604051610101919061097a565b60405180910390f35b610124600480360381019061011f91906107c0565b6104b5565b005b60008054906101000a900473ffffffffffffffffffffffffffffffffffffffff1681565b60008173ffffffffffffffffffffffffffffffffffffffff1663313ce5676040518163ffffffff1660e01b815260040160206040518083038186803b15801561019257600080fd5b505afa1580156101a6573d6000803e3d6000fd5b505050506040513d601f19601f820116820180604052508101906101ca91906108da565b60ff169050919050565b6000808373ffffffffffffffffffffffffffffffffffffffff1663313ce5676040518163ffffffff1660e01b815260040160206040518083038186803b15801561021d57600080fd5b505afa158015610231573d6000803e3d6000fd5b505050506040513d601f19601f8201168201806040525081019061025591906108da565b60ff169050600081600a6102699190610acf565b60016102759190610bed565b90508373ffffffffffffffffffffffffffffffffffffffff168573ffffffffffffffffffffffffffffffffffffffff1614156102b357809250610376565b6000806102c087876104fe565b9150915060008054906101000a900473ffffffffffffffffffffffffffffffffffffffff1673ffffffffffffffffffffffffffffffffffffffff1663054d50d48484846040518463ffffffff1660e01b815260040161032193929190610a34565b60206040518083038186803b15801561033957600080fd5b505afa15801561034d573d6000803e3d6000fd5b505050506040513d601f19601f8201168201806040525081019061037191906108ad565b945050505b505092915050565b60008060008054906101000a900473ffffffffffffffffffffffffffffffffffffffff1673ffffffffffffffffffffffffffffffffffffffff1663c45a01556040518163ffffffff1660e01b815260040160206040518083038186803b1580156103e757600080fd5b505afa1580156103fb573d6000803e3d6000fd5b505050506040513d601f19601f8201168201806040525081019061041f91906107ed565b73ffffffffffffffffffffffffffffffffffffffff1663e6a4390585856040518363ffffffff1660e01b8152600401610459929190610995565b60206040518083038186803b15801561047157600080fd5b505afa158015610485573d6000803e3d6000fd5b505050506040513d601f19601f820116820180604052508101906104a991906107ed565b90508091505092915050565b6000819050806000806101000a81548173ffffffffffffffffffffffffffffffffffffffff021916908373ffffffffffffffffffffffffffffffffffffffff1602179055505050565b600080600061050d858561037e565b90506000808273ffffffffffffffffffffffffffffffffffffffff16630902f1ac6040518163ffffffff1660e01b815260040160606040518083038186803b15801561055857600080fd5b505afa15801561056c573d6000803e3d6000fd5b505050506040513d601f19601f82011682018060405250810190610590919061085a565b506dffffffffffffffffffffffffffff1691506dffffffffffffffffffffffffffff16915060006105c18888610614565b5090508073ffffffffffffffffffffffffffffffffffffffff168873ffffffffffffffffffffffffffffffffffffffff16146105fe578183610601565b82825b8096508197505050505050509250929050565b6000808273ffffffffffffffffffffffffffffffffffffffff168473ffffffffffffffffffffffffffffffffffffffff161415610686576040517f08c379a000000000000000000000000000000000000000000000000000000000815260040161067d906109d9565b60405180910390fd5b8273ffffffffffffffffffffffffffffffffffffffff168473ffffffffffffffffffffffffffffffffffffffff16106106c05782846106c3565b83835b8092508193505050600073ffffffffffffffffffffffffffffffffffffffff168273ffffffffffffffffffffffffffffffffffffffff16141561073b576040517f08c379a0000000000000000000000000000000000000000000000000000000008152600401610732906109f9565b60405180910390fd5b9250929050565b60008135905061075181610d97565b92915050565b60008151905061076681610d97565b92915050565b60008151905061077b81610dae565b92915050565b60008151905061079081610dc5565b92915050565b6000815190506107a581610ddc565b92915050565b6000815190506107ba81610df3565b92915050565b6000602082840312156107d6576107d5610d0d565b5b60006107e484828501610742565b91505092915050565b60006020828403121561080357610802610d0d565b5b600061081184828501610757565b91505092915050565b6000806040838503121561083157610830610d0d565b5b600061083f85828601610742565b925050602061085085828601610742565b9150509250929050565b60008060006060848603121561087357610872610d0d565b5b60006108818682870161076c565b93505060206108928682870161076c565b92505060406108a386828701610796565b9150509250925092565b6000602082840312156108c3576108c2610d0d565b5b60006108d184828501610781565b91505092915050565b6000602082840312156108f0576108ef610d0d565b5b60006108fe848285016107ab565b91505092915050565b61091081610c47565b82525050565b61091f81610cba565b82525050565b6000610932602383610a6b565b915061093d82610d1f565b604082019050919050565b6000610955601c83610a6b565b915061096082610d6e565b602082019050919050565b61097481610c93565b82525050565b600060208201905061098f6000830184610907565b92915050565b60006040820190506109aa6000830185610907565b6109b76020830184610907565b9392505050565b60006020820190506109d36000830184610916565b92915050565b600060208201905081810360008301526109f281610925565b9050919050565b60006020820190508181036000830152610a1281610948565b9050919050565b6000602082019050610a2e600083018461096b565b92915050565b6000606082019050610a49600083018661096b565b610a56602083018561096b565b610a63604083018461096b565b949350505050565b600082825260208201905092915050565b6000808291508390505b6001851115610ac657808604811115610aa257610aa1610cde565b5b6001851615610ab15780820291505b8081029050610abf85610d12565b9450610a86565b94509492505050565b6000610ada82610c93565b9150610ae583610c93565b9250610b127fffffffffffffffffffffffffffffffffffffffffffffffffffffffffffffffff8484610b1a565b905092915050565b600082610b2a5760019050610be6565b81610b385760009050610be6565b8160018114610b4e5760028114610b5857610b87565b6001915050610be6565b60ff841115610b6a57610b69610cde565b5b8360020a915084821115610b8157610b80610cde565b5b50610be6565b5060208310610133831016604e8410600b8410161715610bbc5782820a905083811115610bb757610bb6610cde565b5b610be6565b610bc98484846001610a7c565b92509050818404811115610be057610bdf610cde565b5b81810290505b9392505050565b6000610bf882610c93565b9150610c0383610c93565b9250817fffffffffffffffffffffffffffffffffffffffffffffffffffffffffffffffff0483118215151615610c3c57610c3b610cde565b5b828202905092915050565b6000610c5282610c73565b9050919050565b60006dffffffffffffffffffffffffffff82169050919050565b600073ffffffffffffffffffffffffffffffffffffffff82169050919050565b6000819050919050565b600063ffffffff82169050919050565b600060ff82169050919050565b6000610cc582610ccc565b9050919050565b6000610cd782610c73565b9050919050565b7f4e487b7100000000000000000000000000000000000000000000000000000000600052601160045260246000fd5b600080fd5b60008160011c9050919050565b7f50616e63616b654c6962726172793a204944454e544943414c5f41444452455360008201527f5345530000000000000000000000000000000000000000000000000000000000602082015250565b7f50616e63616b654c6962726172793a205a45524f5f4144445245535300000000600082015250565b610da081610c47565b8114610dab57600080fd5b50565b610db781610c59565b8114610dc257600080fd5b50565b610dce81610c93565b8114610dd957600080fd5b50565b610de581610c9d565b8114610df057600080fd5b50565b610dfc81610cad565b8114610e0757600080fd5b5056fea26469706673582212200ab3aaa113cde7034a4d273890b00b2efeb77441437c5e0eef1a635760efe93564736f6c63430008060033",
  "devdoc": {
    "kind": "dev",
    "methods": {
      "getTokenPrice(address,address)": {
        "params": {
          "token1_address": "address of USDT token contract",
          "token_address": "address of BEP20 token contract"
        }
      }
    },
    "version": 1
  },
  "userdoc": {
    "kind": "user",
    "methods": {
      "getTokenPrice(address,address)": {
        "notice": "Returns the USD price for a particular BEP20 token."
      }
    },
    "version": 1
  },
  "storageLayout": {
    "storage": [
      {
        "astId": 6088,
        "contract": "contracts/oracle/PriceOracle.sol:PriceOracle",
        "label": "uniswapV2Router",
        "offset": 0,
        "slot": "0",
        "type": "t_contract(IUniswapV2Router02)5967"
      }
    ],
    "types": {
      "t_contract(IUniswapV2Router02)5967": {
        "encoding": "inplace",
        "label": "contract IUniswapV2Router02",
        "numberOfBytes": "20"
      }
    }
  }
}